:100000000C94B9010C943E1C0C94D6010C94D601AE
:100010000C94D6010C94D6010C94D6010C94D60104
:100020000C94D6010C94D6010C9464210C943722C4
:100030000C94A41A0C94D6010C94D6010C94D601FD
:100040000C94D6010C94D6010C94D6010C94D601D4
:100050000C94D6010C945C1B0C94D6010C94D60124
:100060000C94D6010C94D6010C94D6010C94D601B4
:100070000C94D6010C94D6010C94D6010C94D601A4
:100080000C94D6010C94D6010C94D6010C94D60194
:100090000C94D6010C94D6010C94D6010C94D60184
:1000A0000C94D6010C94D6010C94D60100002900C2
:1000B0003500000030003200E200E0001E001400B5
:1000C00004001D001F001A0016001B004D004E000A
:1000D0004B004A0020000800070006002100150020
:1000E00009001900220017000A00050039002152FA
:1000F000E1002C0000004C002B0000000000490033
:100100002800000088001705E5002A0023001C00D5
:100110000B001100240018000D00100025000C0039
:100120000E0036004F005200510050002600120011
:100130000F00370027001300330038002D002F0078
:1001400034008700000089002E000000000001003C
:10015000E300000001000100010001003A0001007D
:10016000010001003B00010001000100010001004D
:10017000010001003C000100010001003D00010000
:10018000010001003E00010001000100010001002A
:10019000010001000000010001000000000001005A
:1001A0000100000001000100010001003F0001000A
:1001B00001000100400001000100010041000100B8
:1001C00001000100010001000100010042000100E6
:1001D00001000100430001000100010001000100D5
:1001E000010001000000010001000000260373006F
:1001F0006100740072006F006D0069002F006D00D7
:1002000069006E0074006C00730070006C0069007F
:1002100074000000100373006100740072006F002E
:100220006D00690000000403090409023B0002019B
:1002300000A0FA09040000010301010009211101D5
:1002400000012244000705810308000109040100A0
:10025000010300000009211101000122B600070579
:1002600082032000011201000200000008EDFEEBF5
:100270007001000102000105010902A101850209C6
:1002800001A1000509190129081500250195087526
:100290000181020501093009311581257F9502751B
:1002A00008810609381581257F95017508810605A5
:1002B0000C0A38021581257F950175088106C0C09A
:1002C00005010980A101850319012AB7001501263E
:1002D000B700950175108100C0050C0901A10185C9
:1002E0000419012AA002150126A0029501751081AA
:1002F00000C005010906A1018506050719E029E7E7
:10030000150025019508750181020507190029EFDF
:100310001500250195F075018102050819012905CF
:10032000950575019102950175039101C0050109BB
:1003300006A101050719E029E715002501950875B3
:100340000181029501750881010507190029FF1532
:100350000026FF009506750881000508190129058A
:10036000150025019505750191029501750391010F
:10037000C00011241FBECFEFDAE0DEBFCDBF11E019
:10038000A0E0B1E0E8E2FAE402C005900D92A83BDB
:10039000B107D9F723E0A8EBB1E001C01D92A43367
:1003A000B207E1F70E9438140C94C1240C940000A9
:1003B0008230C0F46431B0F44430A0F4E62FF0E0B1
:1003C00094E1899FE00DF11D1124EE0FFF1FEE0F48
:1003D000FF1FE40FF11DEE0FFF1FE455FF4F859146
:1003E0009491089581E090E008950E94D8010895C5
:1003F00081E008950E94F801089581E008950E9427
:10040000F80108950E94FF01089508950E940502D1
:100410000895A6E0B0E0EFE0F2E00C941D244983DB
:100420005A839E833091BF0189819A8131111AC00C
:100430003E81332399F0222389F00E94AF07182FC1
:10044000682F89819A810E948C0769817A81812F26
:100450000E94960E2696E3E00C9439240E949D0794
:10046000182FF3CF0E94AF0769817A81F1CFFC0189
:10047000262F4081518162817381848195810E9400
:1004800009020895CF93DF93D82FC92F61E00E940E
:1004900037026D2F7C2F0E94FA01DF91CF910895D2
:1004A000CF93DF93D82FC92F60E00E9437026D2FC2
:1004B0007C2F0E940602DF91CF91089581E008957C
:1004C0000E945E020895CF93C82F0E945E068C2F73
:1004D0000E9460022FEF84E39CE021508040904016
:1004E000E1F700C00000CF91089581E00E9463020F
:1004F0000E94801B089580E00E9463020E94911B6D
:1005000008950F931F93CF93DF938C0161E00E94B6
:100510003702EC01B8010E9402028823B1F1B80150
:10052000CE010E947018882381F1B801CE010E948B
:100530008F14882351F1B801CE010E9464148823DE
:1005400021F1F8018581882381F0CA35FCE7DF07B6
:1005500039F178F4C130ECE7DE07F9F0C330FCE79D
:10056000DF07C9F0C115DC4771F0C8010E94FD0129
:100570000DC0CB35ECE7DE07B1F0CC35DC47A9F791
:100580000E94E30BF2CF0E94750280E0DF91CF91D1
:100590001F910F9108950E94F50B0E947B02F5CFE9
:1005A0000E94ED0BE2CF0E94F10BDFCF0E94811A77
:1005B0000E94FD0208950E9401030E94861A089578
:1005C000089581E008950895CF93DF93D82F0E9476
:1005D000E102C82F882319F08D2F0E94E3028C2F8F
:1005E000DF91CF9108950895CF93C82F0E94E00224
:1005F0008C2F0E94E402CF91089580E00E94F402C3
:1006000008950E94B6180E94F4020895CF930E94A4
:10061000B618C82F8091BA018C1779F0C093BA012F
:100620000E94101B6093BB017093BC018093BD01BD
:100630009093BE018C2F0E94F402CF910895ADE0FB
:10064000B0E0E5E2F3E00C941E24488759876A87FE
:100650007B878C879D8791110E94EE0A1F8286E01E
:10066000FE013896DE01119601900D928A95E1F710
:100670008D8181110DC029813A814B815C816D8111
:100680007E818F810E94340A2D96E2E00C943A24F8
:10069000CE0101960E9442028111EDCFF5CFFC01FF
:1006A0008481813021F4808191810E94E107089545
:1006B000662329F00E94FD150E94D31608950E941A
:1006C0005B16FACFCF93C82F882399F08CEF8C0F4D
:1006D000813A88F48C2F0E946019882329F08C2F8E
:1006E0000E94051A0E94860B8C2F0E94EE190E9410
:1006F000860BCF91089580E28C0F883048F4C77044
:1007000081E001C0880FCA95EAF70E94CF0AEFCFB7
:100710008BE58C0F833038F42C2F2452330BC90116
:100720000E94F318E6CFE8E5EC0FEB3150F4F0E06F
:10073000EE0FFF1FE25CFE4F808191810E9419192C
:10074000D8CF83E38C0F8331A0F661E08C2F0E9419
:100750005803CFCF882381F19CEF980F913A28F46A
:100760000E94051A0E94860B089590E2980F983017
:1007700050F4877091E001C0990F8A95EAF7892FAC
:100780000E94D50AEFCF9BE5980F933028F480E0C4
:1007900090E00E94F318089598E5980F9B3128F493
:1007A00080E090E00E941919089593E3980F933127
:1007B00018F460E00E94580308951F93CF93DF93CD
:1007C000182FEB010E946203209739F4812F0E94B9
:1007D000AA03DF91CF911F9108958FE99FE00197C0
:1007E000F1F700C000002197EFCF60E070E089339F
:1007F00011F460E570E00E94DD030895882321F084
:100800000E94CF0A0E94860B0895882321F00E943F
:10081000D50A0E94860B0895A0E0B0E0E2E1F4E082
:100820000C9418246C01D62FC72FFC01158106816A
:1008300002950F700E94C40AE82E8823F9F0E12E79
:100840001123E1F08C2F807F803461F080E28D0FE6
:100850008830F0F08C2F807E803221F4D230C0F0CE
:100860000023B1F08091F80282FF12C082E00E9462
:10087000B60B0E94C40A91E0E82EE926EC2FE2951F
:10088000EF70C03CB0F5F0E0ED53FB4D0C94082444
:10089000E12CF4CF0C2F0F70C03110F00295007FC7
:1008A000112399F0002359F080E28D0F883010F069
:1008B000D11107C0802F0E94CF0A0E94860B8D2F76
:1008C00051C0802F0E94E00AF8CF8D2F0E94AA030A
:1008D000002379F080E28D0F883010F0D11104C030
:1008E000802F0E94D50A03C0802F0E94E60A0E9432
:1008F000860BEE2089F00E94C00A80FD0DC0F60133
:1009000015820E94BA0A0E94E906C6010E942506C5
:100910000E94BA0A0E94F906CDB7DEB7E8E00C944F
:100920003424FC2FFF70FF2EC07FC03219F0F294E8
:1009300080EFF822DD2341F0D130D1F1112309F409
:1009400044C00023F1F0BBCF8091F80282FD15C0B6
:10095000112359F0FF2029F08F2D0E94CF0A0E9409
:10096000860B80E00E946203C4CF80E00E94AA034D
:10097000FF2009F4BECF8F2DB4CF112369F00111F0
:1009800004C08F2D0E94FE03B4CF013009F0B1CF17
:100990008F2D0E94060BADCF0111ABCF8F2D0E9482
:1009A00005048F2D0E94120B8F2D0E94F50AA1CFF6
:1009B000112321F0063008F09CCFE3CF053008F07A
:1009C00098CF8F2D0E94050494CF0023D1F3D93303
:1009D00049F42FEF87EE93E0215080409040E1F7FB
:1009E00000C000008D2F0E94AA0383CF8C2F869514
:1009F00086958370882369F0813009F07ACF8D2F36
:100A00009C2F9370111102C080E090E00E94191990
:100A100070CF8D2F9C2F9370111102C080E090E059
:100A20000E94F31866CF612F8D2F0E94580361CF6B
:100A30008C2F8370811139C0111129C04D2F42951F
:100A400046954770440F440F2D2F2F7030E0042E31
:100A500002C0220F331F0A94E2F780E090E0D4FF37
:100A600009C08FE090E002C0880F991F4A95E2F715
:100A700080959095C695C695C370822B932BC230F6
:100A800071F0C33079F0C13039F00E94B9060E948C
:100A9000B6180E94F4022DCF0E94B006F8CF0E9433
:100AA000C206F5CF0E94AD06F2CF112361F1C0FF5F
:100AB000EECF4D2F429546954770440F440F2D2F92
:100AC0002F7030E0042E02C0220F331F0A94E2F789
:100AD00080E090E0D4FF09C08FE090E002C0880F72
:100AE000991F4A95E2F780959095C695C695C37073
:100AF000822B932BC23069F0C33071F0C13031F0DA
:100B00000E942407C4CF823010F2D3CF0E941B076B
:100B1000BECF0E942D07BBCF0E94D106B8CFCF70A9
:100B2000112339F08C2F0E94E9068D2F0E94FE03BD
:100B3000AECF8D2F0E9405048C2F0E94F906A7CFFF
:100B4000D23F31F170F4D03FB9F0D13FB1F1112370
:100B500009F451C0002309F44BC08D2F0E94620399
:100B600096CFD33FE1F0D43F21F11111F3CF011122
:100B700050C08C2F8F71E1CF112341F0053008F068
:100B800086CF8C2F8F710E940B0781CF0530F7CF56
:100B90008C2F8F711111D1CF0E94E90678CF1123CC
:100BA00029F08C2F8F710E94DD0671CF0E94D8062C
:100BB0006ECF8091F80282FD06C08C2F8F711123B9
:100BC00009F4BBCFE9CF112349F0CF718C2F0E94DC
:100BD000E90663E08C2F0E94980B59CF81E00E94B8
:100BE000B60B023008F453CF82E00E94B60B4FCF11
:100BF0008C2F8F71D1CF002309F4BBCFD93349F4A7
:100C0000EFEFF7EE23E0E150F0402040E1F700C0C5
:100C100000008D2F0E94AA033ACF0F931F93CF930A
:100C2000DF93EC01688179818D810E94EE078C0150
:100C30000E9436070E94AC06B801CE010E940C0447
:100C4000DF91CF911F910F910895CF93DF93EC0126
:100C50008C81882399F0CE010E948102811111C0FC
:100C60000E94C40A882351F08D81882339F0809135
:100C7000F80282FF03C082E00E94B60BDF91CF91A1
:100C80000895CE010E940D06CE010E945002F6CFBB
:100C900080E090E00E94F31880E090E00E94191933
:100CA0000E94EE0A0E94860B0E94F0160E94D31644
:100CB00008950E941C1A0E94480608950E94DD0AA9
:100CC0000E9459060895282F92959F70963091F0B2
:100CD00060F4925F9F70923030F481E0203F79F0B1
:100CE00030F4283E30F080E008959A5FF3CF243F3F
:100CF000D1F7089581E0283EE0F3213FF9CF089530
:100D0000FC018481882339F0808191810E94E10770
:100D10000E946306089580E00895A6E0B0E0E3E94C
:100D2000F6E00C941E242696E2E00C943A24A7E008
:100D3000B0E0EDE9F6E00C941E242796E2E00C9476
:100D40003A2408950E94A10608950E94A206909355
:100D5000EB018093EA01089508950E94A506089585
:100D60002091EA013091EB01822B932B0E94A50682
:100D700008952091EA013091EB01822393230E9490
:100D8000A50608952091EA013091EB01822793276F
:100D90000E94A50608950E94A10608950E94CB0610
:100DA00008950E94CE069093E9018093E80108958A
:100DB00080E090E00E94D106089521E030E0A90192
:100DC00002C0440F551F8A95E2F7CA010E94D1065E
:100DD000089521E030E002C0220F331F8A95E2F728
:100DE0008091E8019091E901822B932B0E94D1061A
:100DF000089521E030E002C0220F331F8A95E2F708
:100E0000209530958091E8019091E9018223932308
:100E10000E94D106089521E030E002C0220F331F66
:100E20008A95E2F78091E8019091E9018227932762
:100E30000E94D10608952091E8013091E901822BAA
:100E4000932B0E94D10608952091E8013091E90189
:100E5000822393230E94D10608952091E8013091C6
:100E6000E901822793270E94D106089508959B01E6
:100E7000677091E001C0990F6A95EAF763E03695D3
:100E800027956A95E1F7220F331F220F331FFA01CE
:100E9000E20FF31F40E050E0682F70E08191DF0126
:100EA00011979B01042E02C0369527950A94E2F70C
:100EB000217021952827292328272C934F5F5F4FE6
:100EC0004430510559F708959C01982F977083E09D
:100ED000369527958A95E1F7220F331F220F331F8E
:100EE000FB01E20FF31F40E050E080E0219130E091
:100EF000092E02C0369527950A94E2F72170332710
:100F0000042E01C0220F0A94EAF7822B4F5F5F4F35
:100F10004430510559F70895282F862F943160F4F5
:100F2000243050F434E0939FB0011124620F711DFE
:100F300040EC51E00E9437070895282F943168F45F
:100F4000843058F434E0939FC001112460EC71E0C8
:100F5000820F911D0E946407089580E00895A0E02B
:100F6000B0E0E5EBF7E00C9417248C01E090E80189
:100F7000F090E9018091EA019091EB01E82AF92AC9
:100F8000CFE0D0E0CC24C394D12CC6010C2E02C0FB
:100F9000880F991F0A94E2F78E219F21892B49F42B
:100FA000219798F7B12C8B2DCDB7DEB7E9E00C94E3
:100FB0003324BC2EB8018C2F0E94A20E019781F31E
:100FC000F2CFCF93DF93D82FC92F0E94AF076D2F99
:100FD0007C2F0E94A20EDF91CF9108951F93CF9393
:100FE000DF93162FD72F9091BF01992341F0862FC1
:100FF000972F0E94E107DF91CF911F9108958823D9
:1010000081F0862F972F0E94AF07C82F682F812F5E
:101010009D2F0E948C07612F7D2F8C2F0E94A20E86
:10102000EACF862F972F0E949D07C82FF4CF0F93EA
:101030001F93CF93E091EC01C7E08091ED018E13F7
:1010400004C0CF911F910F9108950E2F10E0CE9FF5
:10105000F0011124E251FE4F208131814281538100
:101060006481758186810E949706F8013196E77048
:10107000E4CF20912602309127024091280250911E
:10108000290260912A0270912B0280912C020E9409
:101090009706089580912C02803178F480912B027C
:1010A000882359F0E091EC012091ED013091270265
:1010B0004091260257E02E1301C008956E2F70E074
:1010C0005E9FF0011124DF01A251BE4F14968C9156
:1010D0001497882361F111968C911197831327C07F
:1010E0008C91841324C015968C91159781111FC083
:1010F00012968D919C91A0912802B09129028A1B91
:101100009B0B883C910598F480912C028F70806134
:1011100080932C02EC50FE4F80818F708061808321
:1011200086E292E00E9425060E9417080895FB01BE
:101130003196E770C0CFE091EC019091ED0127E08E
:10114000E91302C080E00895AE2FB0E02E9FF001B9
:101150001124E251FE4F3181361306C0308138131D
:1011600003C03581341304C0FD013196E770E8CF28
:1011700081E008958F929F92AF92BF92DF92EF929B
:10118000FF920F931F93CF93DF93CDB7DEB72D97C9
:101190000FB6F894DEBF0FBECDBF8C0186E0F8011C
:1011A000DE01189601900D928A95E1F7F801E08032
:1011B000F580A280B380848196E2892E92E0992EF8
:1011C00090912A0291111BC0882309F4FCC0FF20D2
:1011D00009F43DC1C8010E948006882309F437C183
:1011E00087E0F801D40101900D928A95E1F7C401DE
:1011F0000E944F030E944A080E943908E4C0D09020
:101200002B022091280230912902A501421B530B89
:10121000DD2009F4DBC0483C510508F0A6C0882356
:1012200009F4D1C090912702918080912C028031E5
:1012300008F06BC0991228C0909126029E1124C01C
:10124000F1105DC08F70806180932C020E9439087C
:1012500086E292E00E94250680912C02F8018683A6
:10126000F12C8F2D2D960FB6F894DEBF0FBECDBF9B
:10127000DF91CF911F910F91FF90EF90DF90BF9082
:10128000AF909F908F900895F11039C040E0692D84
:101290008E2D0E949B0840E0692D8E2D0E949B0898
:1012A000F82E8111DDCF888599850E94E107292FCD
:1012B00022952F70903450F49F70223080F0992343
:1012C00099F0F8019681903178F4CBCF2A5F2F7096
:1012D000223078F0C8010E942506FD2CC2CF992348
:1012E00019F0882309F4BDCF805E883008F4B9CFA7
:1012F000F1CF803F08F4B5CF815F8230F7CF809186
:101300002C02816080932C02ABCF991207C0909180
:1013100026029E1103C0FF2009F479C0C8010E9473
:101320008006882309F493C0FF2009F490C08091BF
:101330002C02803288F020912602309127023A83D5
:101340002983BC82AB8290912A029D831E828F8367
:10135000CE0101960E94250687E0F801A6E2B2E0E0
:1013600001900D928A95E1F745CF90912C02903132
:10137000A0F4488559856A857B858C859D850E946A
:101380008D0686E292E00E94250687E0F401119224
:101390008A95E9F70E94390863CF8823A1F020914C
:1013A000270281812813BACF809126028E11B6CFF1
:1013B000F110B4CF9683C8010E94250687E0F4019E
:1013C00011928A95E9F7FF24F3944BCF483C5105DD
:1013D00008F041C08823B9F3FF20C9F1909127029A
:1013E000818198132AC0809126028E1126C0809197
:1013F0002C0280FD19C08031B8F08683807F803F49
:1014000039F08681982F907F905F8F70892B86832B
:10141000C8010E94250687E0F801A6E2B2E001902B
:101420000D928A95E1F7E8CE87E0F801A6E2B2E0F6
:1014300001900D928A95E1F7C6CFC8010E948006FF
:1014400081118ACF80912C02816080932C02C80187
:101450000E942506B8CF488559856A857B858C858D
:101460009D850E948D0691CFAEE0B0E0EAE3FAE000
:101470000C941D24288739874A875B876C877D8772
:101480008E87CE0108960E94BA088823B1F06C8539
:10149000662341F0288539854A855B857D858E8563
:1014A0000E94970617E08091EC019091ED0189135D
:1014B0003EC02E96E3E00C94392487E0FE01389676
:1014C000DE01119601900D928A95E1F72091ED01D0
:1014D0004091EC018C85882329F330E0C901019605
:1014E0008770992750E08417950799F097E0929FAD
:1014F000D001939FB00D1124A251BE4FFE01319631
:1015000001900D929A95E1F78093ED010E941708E2
:10151000C9CF0E945E061092ED011092EC0187E0A7
:10152000E6E2F2E0DF011D928A95E9F7BBCF189F52
:10153000C001112482519E4F0E94BA08882309F4E9
:10154000B8CFE091EC011E9FF0011124E251FE4F53
:1015500020813181428153816481758186810E941D
:1015600097068091EC0190E001968770992780930F
:10157000EC0199CF809155028695869586950895C0
:10158000809155028770089590915502977081E07F
:10159000911101C080E00895809181020895909199
:1015A0008102982B909381020895982F90958091B5
:1015B0008102892380938102089510928102089507
:1015C00090918002982B909380020895982F909587
:1015D0008091800289238093800208951092800276
:1015E000089508950E94F10A089590915602292FB6
:1015F0002823222331F080958923809356020E946C
:10160000F20A089508950E94020B089590915702DE
:10161000292F2823281729F0982B909357020E94EE
:10162000030B089590915702292F2823222331F08C
:1016300080958923809357020E94030B089580911F
:101640005702882329F01092570280E00E94030B72
:101650000895CF93DF93C091810280918002C82BBF
:10166000D0915702DD2331F00E943F1981110E9471
:101670001F0BCD2B8C2FDF91CF910895CF93DF934C
:10168000C0910201D09103010E94290B8883C0916F
:101690000201D091030148E050E06DE472E0CE0118
:1016A0000E945924892B59F088E0FE01ADE4B2E094
:1016B00001900D928A95E1F7CE010E94CA18DF9140
:1016C000CF910895CF93DF93C0910001D091010194
:1016D0000E94290B8983C0910001D091010140E251
:1016E00050E06DE272E0CE010E945924892B59F03E
:1016F00080E2FE01ADE2B2E001900D928A95E1F741
:10170000CE010E94D518DF91CF91089580913D01BF
:10171000882339F08091F70287FF03C00E94620B93
:1017200008950E943E0B089508950E94940B089519
:101730009091F80292FF11C098E0899F90011124C6
:10174000622B609355020E94E906809155028695AE
:10175000869586950E94950B08950E94E906089546
:101760001092550280E00E94950B089590915502C9
:101770008095892380935502282F277021110DC051
:10178000891759F09091F80292FF07C086958695C7
:1017900086950E94F9060E94B00B08959091F80278
:1017A00092FB222720F9281769F080FB92F9909389
:1017B000F8028091F7029091F8020E94160C82E0E4
:1017C0000E94B60B08958091F80282FB882780F969
:1017D00091E089270E94CE0B089581E00E94CE0BF4
:1017E000089580E00E94CE0B08956FEF7FEF80E0B8
:1017F00090E00E94AB24089580E090E00E9477245E
:101800009C0181E0263E3E4F09F080E0089582E091
:1018100090E00E946F24089583E090E00E946F247E
:10182000089584E090E00E9477240895BC0184E04C
:1018300090E00E94AB240895AB01BC018FE090E0E2
:101840000E949F240895AB01BC0183E190E00E94B7
:101850009F24089560E070E0CB010E94230C08955E
:1018600060E070E0CB010E941C0C0E942A0C0895DD
:10187000A8E0B0E0EEE3FCE00C941E2466EE7EEF00
:1018800080E090E00E94AB2460E082E090E00E9463
:101890008D2481E090E09093EB018093EA0161E078
:1018A00083E090E00E948D2460E074E184E090E0A9
:1018B0000E94AB2460E086E090E00E948D246FEFF0
:1018C00087E090E00E948D2440E050E0BA0188E07B
:1018D00090E00E949F2460E084E290E00E948D24CA
:1018E00060E087E190E00E948D2460E08CE090E071
:1018F0000E948D2460E08DE090E00E948D2419828A
:101900001A821B821C821D821E821F82188648E05A
:1019100050E068E170E0CE0101960E947D2440E035
:1019200050E0BA0180E290E00E949F240E94300CB7
:101930002896E2E00C943A240E94380C0895682F0F
:101940008EE090E00E948D240895A6E0B0E0EBEADE
:10195000FCE00C941C240E94041B8C0180918202E8
:10196000909183028017910779F019821A820E9460
:10197000041BBC0149815A8180E090E00E941F0352
:1019800010938302009382022696E4E00C9438249C
:101990000E94D00F60939C0270939D0280939E02E0
:1019A00090939F02609398027093990280939A0299
:1019B00090939B020895089508950E94DB0C08956A
:1019C00008950E94E00C089581E0089583E090E17D
:1019D0000E9445140E94DC0C0E94DD0C08950E94B8
:1019E0002E120895089508950E94F20C0E94F30C9F
:1019F00008950E9422100E94F30208950E94FB1A8B
:101A00000E949A0F0E9434120E9452110E94F90CF7
:101A10000E944A140E9446120E94E10C0895A6E01A
:101A2000B0E0E5E1FDE00C9415240E94E40C811186
:101A30000CC00E94A50C0E942E120E9411170E9439
:101A400006032696EBE00C9431240E949F1184E853
:101A5000A82E82E0B82E750110E0F70101917F01F8
:101A6000812F0E9448101F5F143109F443C00817EA
:101A7000A1F38091A00281FD0E944E100E94EF0C04
:101A8000C82E00E099249394802F0E944810182FAC
:101A9000F50191915F01891739F1D82ED926F12CE2
:101AA000EE24E3948E2D8D218823B1F0CC20A1F07B
:101AB000F9820A830E94041B9C838B839D8291E0A0
:101AC0008E2D8123811101C090E049815A816B8163
:101AD0007C818D810E941F03F394EE0CF4E0FF12D1
:101AE000E1CFF501319710830F5F043169F60E9451
:101AF000C80CA1CF0813BDCF9CCF1F93CF93DF930A
:101B00000E94A70EEC01811522E5920708F053C050
:101B1000811540E5940708F0DDC0803E9105F8F49A
:101B20008D3C910508F0AEC0883A910580F4853A65
:101B3000910508F099C08130910521F00497813A10
:101B4000910550F4CE01DF91CF911F910895885AED
:101B500091094B9708F48BC0C0E0D0E0F3CF81151A
:101B600050E49507F8F4C11580E2D80708F0CBC01F
:101B7000C83ED10538F3CE019A9581159F4160F793
:101B80008D2F0E944B0F182FCE0199270E94A70E70
:101B9000212F30E0322F2227E901CC27DF71C82B1B
:101BA000D92BD0CF99270E94A70ECC27DF70C82B46
:101BB000D92BD06AC7CF803842E59407C8F5803664
:101BC00052E5950708F067C0C03482E5D807B0F049
:101BD0008C2F86958695877020E2829FC001112404
:101BE000C37021E030E0A90102C0440F551FCA951F
:101BF000E2F7EA01C82BD92BDC68A4CFC03252E54A
:101C0000D50708F041C08C2F8695869520E2829FEB
:101C1000C0011124C37021E030E0A90102C0440FCB
:101C2000551FCA95E2F7EA01C82BD92BDD688ACF88
:101C3000803C52E5950760F48F71C03AD24508F0B8
:101C40003FC090E0982F8827EC01C46FD06A7ACF0C
:101C5000805C9245809708F07FCFDC2FCC27CC2783
:101C6000DF71C06FD06A6ECFA497D0646BCFC85AB3
:101C7000D0E0CC0FDD1FCC58DE4F0990D881C02DAD
:101C8000D46460CFD0655ECFCF71D0E0DC2FCC279D
:101C9000C16FD06A57CF86958695877020E2829F64
:101CA000C0011124C37021E030E0A90102C0440F3B
:101CB000551FCA95E2F7EA01C82BD92BDA6842CF43
:101CC0000E944B0FC82FD0E0DC2FCC27CC27DF7130
:101CD000D06238CF8F710E944B0F65E0D695C795C3
:101CE0006A95E1F7CF70D0E0DC2FCC27282F30E0C9
:101CF00084FF05C054E0220F331F5A95E1F7C22B31
:101D0000D32BD0691FCF8D2F8F710E944B0F182FAF
:101D1000CE0199270E94A70E212F30E0322F2227D3
:101D200022273F71282B392BE901D2CF462F672F6D
:101D3000743128F4443018F40E94F501089580E0CD
:101D400090E008950E94960E0E947D0D0895803EB9
:101D50009105D1F1C8F48133910509F47FC048F4AD
:101D60008932910509F46FC08A32910509F47DC06A
:101D7000089589339105E1F082389105C9F08533E2
:101D8000910509F45BC00895843E9105D1F148F4B2
:101D9000823E910531F1833E910541F181EE90E063
:101DA0000895863E9105C1F1873E9105E1F10895C0
:101DB0002091F7022370211165C02091F80223FFC2
:101DC00014C089E290E008952091F70220FD43C0FD
:101DD0003091F80230FF09C024FF4EC080E090E04F
:101DE00008952091F70222FDF7CF08952091F70280
:101DF00022FD45C03091F80230FD44C024FFF5CFEC
:101E0000EDCF2091F80221FFF0CF8091F70284FD01
:101E1000E5CF87EE90E008952091F70223FFE5CF0C
:101E200024FDDCCFF6CF2091F70223FD2EC03091A8
:101E3000F80231FFE3CF84EE90E008952091F7029D
:101E400025FFD3CFBECF2091F70225FD21C02091E1
:101E5000F80223FFCACF89E390E008952091F702AA
:101E600026FFC3CF8AE290E008952091F70226FF73
:101E7000BCCF81E390E0089583EE90E0089582EE78
:101E800090E0089580EE90E0089586EE90E0089549
:101E900085E390E0AACF9091F70292FF10C041E055
:101EA000282F2471243009F040E031E0282F2871D8
:101EB000283009F030E0431711F02CE0822793FF1F
:101EC00010C041E0282F2471243109F040E031E0B6
:101ED000282F2871283109F030E0431711F02CE049
:101EE00082273091F80230FF10C051E0282F217175
:101EF000213009F050E041E0282F2871283009F006
:101F000040E0541711F029E0822731FF10C041E072
:101F1000282F2171213109F040E031E0282F28716C
:101F2000283109F030E0431711F029E0822794FDB1
:101F3000877E08951092F3021092F4021092F50237
:101F40001092F6020895CF92DF92EF92FF92CF9314
:101F5000DF9300D000D0CDB7DEB76B017C010E94CB
:101F60002E12811112C00E94101B69837A838B8309
:101F70009C83C61AD70AE80AF90AC092F302D092E3
:101F8000F402E092F502F092F6020F900F900F909B
:101F90000F90DF91CF91FF90EF90DF90CF90089559
:101FA000A4E0B0E0E6EDFFE00C941E240E942E12A7
:101FB000882371F00E94101B69837A838B839C8332
:101FC00069817A818B819C812496E2E00C943A2489
:101FD0000E94101B69837A838B839C838091F30218
:101FE0009091F402A091F502B091F60229813A8114
:101FF0004B815C81280F391F4A1F5B1F29833A835D
:102000004B835C83DDCF80E008950E94F50B08953B
:102010000E949F112FEF86E791E021508040904071
:10202000E1F700C000000E949F1180E00E9448106C
:1020300080FF04C00E9405100E94801B08950E942A
:10204000081008950E94FC0B811102C00E949C0C94
:102050000E94070C8093A0020E94110C9093F8023A
:102060008093F7020E941F100E940C0C90E00E94C7
:10207000AD068091E8019091E9010E94CE06089595
:1020800008950E944010089508950E9444100895F4
:10209000E82FF0E0E25FFC4F80810895089580EA28
:1020A0008A95F1F7089500C008950E944F10089591
:1020B00008950E9458100895AAE0B0E0E2E6F0E129
:1020C0000C9419240E942E12182F60912203882349
:1020D00009F445C01A821982FE01339688E0DF01B7
:1020E0001D928A95E9F7862F90E032977F01BF0114
:1020F000825F9C4F0E945412DE2C0F2D8823B9F072
:102100008091F90290E04AE050E0B701825F9C4F75
:102110000E94592421E02093A102892B99F410E018
:102120000E944510812F2A96E7E00C943524809177
:10213000A1028823A1F38AE0D7011D928A95E9F7CD
:102140001092A102A091F902B0E0A25FBC4F8AE018
:10215000ED2DF02F01900D928A95E1F7E1CF70E01F
:10216000625F7C4F8091F90290E0825F9C4F0E94F9
:10217000DD120E945910D6CFF894E82FE295EF7047
:10218000F0E041A18F7021E030E0B90102C0660F9C
:10219000771F8A95E2F7CB01962F9095942391A310
:1021A00092A1892B82A3789408950F931F93CF93C4
:1021B000DF93C8E0D1E089918F3F11F00E94BC10FD
:1021C00081E0C231D807B9F7C4E0D1E008E011E0FE
:1021D00089918F3F11F00E94BC100C171D07C1F7A9
:1021E000DF91CF911F910F910895A0E0B0E0EBEF48
:1021F000F0E10C941824EC01D62E062F10E0C80153
:10220000885F9E4F7C01FC0180818F3F09F445C0AF
:10221000F894E82FE295EF70F0E091A18F7021E043
:1022200030E001C0220F8A95EAF7892F822B81A323
:1022300082A12095282322A378940E945310E4E0E1
:10224000F1E091E0C12C81918F3F81F0A82FA29500
:10225000AF70A05EB0E02C9130E08F7002C0359579
:1022600027958A95E2F72170892F211180E0C82AED
:10227000990F81E0E830F80731F7F70180818F3F4F
:1022800011F00E94BC1061E0C11001C060E08D2D12
:102290000E945510C00FD11FC882CDB7DEB7E8E04D
:1022A0000C943424AAE0B0E0E8E5F1E10C941E249B
:1022B0008091120181111EC08AE0EAEAF1E0DE019C
:1022C000119601900D928A95E1F78AE0FE01319610
:1022D000A8E0B1E001900D928A95E1F784E980933E
:1022E000040186E68093050187E98093060186EC68
:1022F000809307018091120190E0811101C09AE062
:10230000909322038AE0891B8093F9020E94D510E2
:1023100084E1EEE0F3E0DF01982F1D929A95E9F752
:10232000EAEFF2E0DF011D928A95E9F78AE00E9468
:10233000E0110E9441102A96E2E00C943A24A4E1B4
:10234000B0E0E5EAF1E10C941B241A821982FE0147
:10235000339682E1DF011D928A95E9F7F12C8E0117
:102360000F5F1F4F6F2DC8010E94F510F394BAE064
:10237000FB12F8CF44E150E0B8018AEF92E00E94EE
:10238000592421E0892B99F420E06091220370E028
:10239000625F7C4F4AE08AEF92E00E94E111182FC1
:1023A0000E945C10812B6496E5E00C94372484E154
:1023B000F801AAEFB2E001900D928A95E1F7E5CF1E
:1023C0000895A0E0B0E0E7EEF1E10C941824D82ED7
:1023D000E92EF62ED72F042FC22F222379F081E089
:1023E0008093A4020E94041B9093A3028093A202F4
:1023F00080E0CDB7DEB7E8E00C943424C090A402AE
:10240000CC20B1F38091A2029091A3020E942D1BD7
:10241000059770F310E0A8016D2D7E2D8F2D9D2F57
:102420000E945924892B41F0A8016D2D7E2D8F2DFE
:102430009D2F0E946624CC2D1092A4028C2FD9CF00
:10244000CF930E94E723C82F811102C00E94E2238C
:102450008C2FCF9108958091A80208958091A702B2
:1024600008950E942E1208950E9420128093A702C0
:102470000E9431128093A8020E942B1280931201B5
:102480000E942E1281110E948A1208950E942E121B
:10249000811102C00E948D12089581E09091A902DD
:1024A0009A3008F080E008950F931F93CF93DF9345
:1024B000EC01162F072F8091A9028A3090F4612F2A
:1024C000702FCE010E94DA12811121C08091A902E1
:1024D0008F3FB1F40E94041B9093A6028093A50243
:1024E00009C08091A5029091A6020E942D1B843FF5
:1024F000914028F780E0DF91CF911F910F910895CF
:102500008F5F8093A9028A3028F781E0F4CF109280
:10251000A902FBCF0E94F61B08950E94F91B0895A3
:10252000A0E0B0E0E6E9F2E10C941824FA016901B8
:102530007801C82F880FDD0B3097B1F0DE0193E0F2
:10254000AA0FBB1F9A95E1F7AD5EBE4F11968D9114
:102550009C91129786559D4F4C9150E0E417F507DA
:1025600008F4AF010E946624CE010E94E41C182FDB
:102570008823D1F0E114F104B9F083E0CC0FDD1F22
:102580008A95E1F7FE01ED5EFE4F438150E0E416CF
:10259000F50608F4A701CD5EDE4F6C817D8166559E
:1025A0007D4FC6010E946624812FCDB7DEB7E8E0DB
:1025B0000C9434240E94DB1308950E94F4130895B0
:1025C000A8E0B0E0E6EEF2E10C941C248091CB028E
:1025D0009091CC02A091CD02B091CE02BC01CD0170
:1025E0000E943C1B11E0643671058105910520F1C4
:1025F0000E94D00FDC01CB010296A11DB11D898381
:102600009A83AB83BC8300E010E020E030E044E03C
:1026100050E0BE016F5F7F4F82E00E949012182F42
:10262000882351F00E94101B6093CB027093CC0260
:102630008093CD029093CE02812F2896E4E00C94F3
:102640003824AFE0B0E0E7E2F3E10C9416247B011C
:10265000A090B501B090B60101E010E09E01255FA9
:102660003F4F40E050E060E070E080E00E94901258
:10267000182F882309F44DC065018FEFC81AD80AB6
:102680008091C7029091C802A091C902B091CA027C
:10269000BC01CD010E943C1B6C877D878E879F8784
:1026A000643671058105910560F10AE010E09E0134
:1026B0002F5F3F4F40E050E060E070E081E00E941B
:1026C0009012182F6AE070E0C6010E944B149B859F
:1026D00098132AC0112341F10E94101B6093C70276
:1026E0007093C8028093C9029093CA028AE0FE01E7
:1026F0003196ADEBB2E001900D928A95E1F781E061
:1027000014C06AE070E0C6010E944B149B858913D7
:10271000CCCF8AE0F5013196DE01119601900D9241
:102720008A95E1F71111E2CF80E09AE0EDEBF2E05B
:10273000D70101900D929A95E1F72F96EAE00C945B
:102740003224A0E0B0E0E7EAF3E10C941624F82E7E
:10275000E92EB62EA72E8A010E944D12CC24C394D6
:10276000D12C882319F08AE0C82ED12CC1E0D0E00A
:102770006B2D7A2D8F2D9E2DF8010995811116C094
:102780002196CC16DD0694F0CC9FC001CD9F900D14
:10279000900D112420E030E045E34A95F1F7000068
:1027A0002F5F3F4F28173907B9F7E2CFCDB7DEB714
:1027B000EAE00C9432240F931F93CF93DF93D82F2A
:1027C000C92F8B0141E253E10E94A113882339F004
:1027D00040EE52E1B8018D2F9C2F0E94A113DF9192
:1027E000CF911F910F9108950F931F93CF93DF9374
:1027F000FB01C091B501D091B601CE0101962AE04E
:10280000DC0101900D922A95E1F76AE070E00E94E8
:102810004B1488836B857C858D859E850091B902DC
:102820001091BA022091BB023091BC02601771076F
:102830008207930751F06093B9027093BA028093B4
:10284000BB029093BC020E94A30FDF91CF911F9116
:102850000F9108950E94BC1E0E94FE0C0E94C91E8A
:1028600008950E94CE1E0E940F0D0E94E81E08953A
:102870000E949D1A0E94A21E0E94E60C0E942A1429
:102880000E9431140E94F40CFBCF9093B901809305
:10289000B80108950895FC01680F791F8FEF91E347
:1028A000E617F70709F408952191822728E030E020
:1028B00087FF08C0880F892721503109211531056C
:1028C000B9F7EECF880FF8CFCF93DF93EB018631C6
:1028D0009C4719F50E94CC0A9D819923A1F08A7A20
:1028E00091E0811101C090E09093CF02882349F0DC
:1028F00085E30E94EE190E94860B80E0DF91CF9164
:10290000089589E2F6CF8091CF02882321F085E3F4
:102910000E94051AF0CF89E2FBCF81E0EFCFCF9381
:10292000DF93EC01FB018581882309F4D2C09E016D
:1029300030572332310508F0B2C00E94110C909339
:10294000F8028093F702FE01E150F047E232F10510
:1029500020F4E153FB4D0C9408248091F702816030
:102960008093F70293C08091F80288608093F80208
:102970008DC08091F7028260F3CF8091F70284606E
:10298000EFCF8091F7028860EBCF8091F8028160F1
:10299000EDCF8091F8028260E9CF8091F7028061EB
:1029A000DFCF8091F7028062DBCF8091F7028064F5
:1029B000D7CF0E945E068091F7028068D1CF8091C8
:1029C000F7028C60CDCF8091F8028360CFCF8091E9
:1029D000F7028E7FC5CF8091F802877FC7CF8091A5
:1029E000F7028D7FBDCF8091F7028B7FB9CF8091A9
:1029F000F702877FB5CF8091F8028E7FB7CF8091A5
:102A0000F8028D7FB3CF8091F7028F7EA9CF80919E
:102A1000F7028F7DA5CF8091F7028F7BA1CF0E9417
:102A20005E068091F7028F779BCF8091F702837FBC
:102A300097CF8091F8028C7F99CF8091F70282FB2B
:102A4000992790F921E0922790FB82F990FB83F976
:102A500087CF8091F802982F909591708E7F892B67
:102A600090FB81F983CF9091F702892F8F7B96FF9E
:102A7000806476CF0E945E069091F702892F97FBC3
:102A800087F980586DCF81E00E949F0C8091F702FA
:102A90009091F8020E94160C0E945E0680E0DF9181
:102AA000CF91089580E0F0CF9091F702892F8F7E2B
:102AB00094FF806155CF9091F702892F8E7F90FF10
:102AC00081604ECF9091F802892F877F93FF8860B5
:102AD0004DCF81E0E4CF282F35EB2303C001112433
:102AE00097FF04C080589109892F089580589F4FFF
:102AF000FBCF8091D60280FF0DC06091300170E065
:102B0000660F771F60387105C0F561157105B9F161
:102B1000862F089581FF07C06091300184E0689F8F
:102B2000B0011124EFCF82FF04C06091300188E032
:102B3000F6CF8091D5028823E9F090912F01609122
:102B4000300170E0891730F093E0660F771F9A9597
:102B5000E1F7D8CF869F9001879F300D112483E045
:102B6000220F331F8A95E1F7692F70E0C9010E9497
:102B7000F423C8CF68E070E0CBCF8FE7089581E001
:102B800008958091D60280FF0CC060912C0170E006
:102B900075956795759567956115710561F1862F36
:102BA000089581FF06C060912C0170E075956795CE
:102BB000F3CF60912C0170E082FD15C02091D4020A
:102BC0002223B1F090912B0160912C0170E0291724
:102BD00050F4269FA001279F500D1124692F70E00B
:102BE000CA010E94F42360387105B0F28FE708959E
:102BF00061E070E0D4CF81E008959091D9022091F6
:102C0000DA02922B2091DC02922B2091DB02922B94
:102C1000992331F098E09093D50291E09093D402FB
:102C20008D3C31F40E94791581958093DA020895E4
:102C3000E2E3E80FE231B0F5F0E0EF50FB4D0C9429
:102C400008240E947915F1CF0E947915819580930F
:102C5000D90208950E947915FACF0E94C115809378
:102C6000DB0208950E94C1158195F9CF0E94C1151C
:102C700081958093DC0208950E94C115FACF815D91
:102C8000990B21E030E001C0220F8A95EAF780918C
:102C9000D802822B8093D80208958091D602816059
:102CA0008093D60208958091D6028260F9CF8091F8
:102CB000D6028460F5CF4091D9028D3C59F48091C1
:102CC000DA0287FF0DC01092DA02442359F4109201
:102CD000D50208C08E3C81F48091DA0218169CF36C
:102CE000442381F08091DB029091DC02892B8111D9
:102CF00059C01092D40208958F3C41F447FFF0CFA1
:102D00001092D9028091DA028823E0CF803D19F435
:102D10001416B4F3E5CF9091DB02893D29F419161E
:102D2000FCF61092DB02DCCF8A3D19F497FFD8CF76
:102D3000F8CF9091DC028B3D29F497FFD1CF109210
:102D4000DC02CECF8C3D19F41916CCF3C9CF9FE22B
:102D5000980F983090F4815D990B21E030E0B90133
:102D600002C0660F771F8A95E2F7CB01809590919C
:102D7000D80289238093D802B3CF8D3D31F480915E
:102D8000D6028E7F8093D602ABCF8E3D21F4809108
:102D9000D6028D7FF7CF8F3D09F0A2CF8091D6026A
:102DA0008B7FF0CF08950E94041B2091D9023091AF
:102DB000DA02232B222321F08093D2029093D302B4
:102DC0002091DB023091DC02232B222321F080931F
:102DD000D0029093D10287ED92E00E94E41808950A
:102DE00086E0E7EDF2E0DF011D928A95E9F71092A7
:102DF000D5021092D4021092D6020895FC0182816D
:102E000081110DC0838181110AC08481811107C0A5
:102E100081E09581911101C080E08170089581E089
:102E2000FCCFA6E0B0E0E7E1F7E10C941B2486E0DC
:102E3000E7EDF2E09E012F5F3F4FD90101900D9227
:102E40008A95E1F71092D9021092DA021092DB0211
:102E50001092DC028B819C81892B8901882391F05F
:102E60008091D2029091D3020E942D1B9C018091EF
:102E7000D5028823C9F14091310150E04217530730
:102E800008F43FC08D819E81892B882399F0809121
:102E9000D0029091D1020E942D1B9C018091D402FE
:102EA000882309F467C040912D0150E04217530771
:102EB00008F46EC0B80187ED92E00E94361A8111C5
:102EC00005C087ED92E00E94FE1681110E94D31684
:102ED00086E0F801A7EDB2E001900D928A95E1F746
:102EE0002696E5E00C943724409132019AE0499F00
:102EF000A00111244217530728F68F5F8093D50253
:102F000002C08F3FD1F7FB80FF2059F00E94791556
:102F100091E01F140CF09FEF899F802D1124809366
:102F2000D902FC80FF2059F00E94791591E01F140E
:102F30000CF09FEF899F802D11248093DA028091FD
:102F4000D902882309F49ECFF090DA02FF2009F419
:102F500099CF0E946B15811101C081E08093D90245
:102F60008F2D0E946B15882319F08093DA028ACF87
:102F700081E0FBCF40912E019AE0499FA0011124EE
:102F80004217530708F096CF8F5F8093D40202C098
:102F90008F3FD1F7FD80FF2059F00E94C11591E0CD
:102FA0001F140CF09FEF899F802D11248093DB026A
:102FB000FE80FF2059F00E94C11591E01F140CF013
:102FC0009FEF899F802D11248093DC028091DB028A
:102FD000882309F46FCFF090DC02FF2009F46ACF58
:102FE0000E946B15811101C081E08093DB028F2D5F
:102FF0000E946B15882319F08093DC025BCF81E07F
:10300000FBCF0F931F93CF93DF93C42FD22FFC01DD
:1030100085818823C9F04093DF020E94041B9093AE
:10302000DE028093DD0280E28C0F883040F4C770AE
:1030300081E001C0880FCA95EAF70E94FE03DF9184
:10304000CF911F910F9108951091DF0214133CC08E
:103050008091DD029091DE020E942D1B883C91053B
:1030600098F5C0E2CD0F1D1741F180E2810F883045
:1030700040F4177081E001C0880F1A95EAF70E94AA
:103080000504C83020F0802F0E94F503D8CF91E0CE
:103090008D2F877001C0990F8A95EAF7892F0E94BA
:1030A000FE03802F0E94F503D77081E001C0880FD6
:1030B000DA95EAF70E940504C2CF802F0E94F5033B
:1030C000C83008F0BCCFF0CF80E28C0F883008F019
:1030D000B6CFC77081E001C0880FCA95EAF7EACF82
:1030E0000F93FC01CB01E851FC47E730F10590F567
:1030F000ED5FFA4D0C94082406E221EE41EE6AE100
:103100007CE70E94011880E00F91089507E225EE08
:1031100045EE6BE17CE7F5CF06E221EE40EE68E19B
:103120007CE7EFCF07E225EE44EE69E17CE7E9CFEB
:1031300006E221EE42EE6CE17CE7E3CF07E225EE0A
:1031400046EE6DE17CE7DDCF08E221E045EE6EE181
:103150007CE7D7CFFB01858181111092DF0281E0EE
:10316000D3CF9093E6028093E50208950E942E1239
:10317000811103C08091E0020895E091E502F09191
:10318000E602309729F00190F081E02D099508952D
:1031900080E00895E091E502F091E602309721F099
:1031A0000280F381E02D09950895DC01E091E502AC
:1031B000F091E602309739F086E08C930480F58137
:1031C000E02DCD0109950895DC01E091E502F09133
:1031D000E602309739F082E08C930680F781E02D8B
:1031E000CD0109950895A3E0B0E0E9EFF8E10C9472
:1031F0001E249C018091E3029091E40282179307C0
:10320000A1F03093E4022093E302E091E502F09113
:10321000E602309751F083E089833B832A83008460
:10322000F185E02DCE01019609952396E2E00C94FC
:103230003A24A3E0B0E0EFE1F9E10C941E249C01F4
:103240008091E1029091E20282179307A1F03093FE
:10325000E2022093E102E091E502F091E60230976C
:1032600051F084E089833B832A830084F185E02D3B
:10327000CE01019609952396E2E00C943A24209120
:103280000201309103012E5F3F4F80913D01882361
:10329000A9F08091F70287FF11C0209100013091C1
:1032A00001012E5F3F4F9DE180E0F90140812F5FDA
:1032B0003F4F41118F5F9150C0F7089595E0F4CFD3
:1032C000882321F190913D01992311F19091F7020A
:1032D00097FF1EC0982F969596959695803FB0F4CF
:1032E000E0910001F0910101E90FF11D228130E030
:1032F000877041E050E0BA0102C0660F771F8A95DF
:10330000E2F72623372381E0232B91F480E0089510
:103310002091020130910301F9013296285F3F4F5D
:103320009191981721F0E217F307D1F7EFCF81E0E1
:1033300008959C01FC0132968FEF90E04191461771
:1033400051F08F3F19F4411101C0892F9F5F9630D2
:10335000A9F78F3F09F40895280F311D87FD3A958D
:10336000F901628308959C01FC013296285F3F4F6A
:103370008191861303C0DF0111971C92E217F307B6
:10338000B9F70895FC01862F869586958695603F4E
:1033900060F4E80FF11D677021E030E001C0220FFA
:1033A0006A95EAF78281822B82830895FC01862F39
:1033B000869586958695603F80F4E80FF11D6770CD
:1033C00081E090E09C0102C0220F331F6A95E2F772
:1033D000B90160958281682362830895682F809186
:1033E0003D01882359F08091F70287FF07C0809143
:1033F0000001909101010E94C2190895809102017B
:10340000909103010E9499190895682F80913D01C0
:10341000882359F08091F70287FF07C0809100014F
:10342000909101010E94D619089580910201909116
:1034300003010E94B319089580913D01882379F01A
:103440008091F70287FF0BC0E0910001F09101012C
:1034500032968EE1DF011D928A95E9F70895E09199
:103460000201F0910301329686E0F4CFDC01FB010A
:1034700011969C9111978181981322C012968C917C
:103480001297882319F0928189131AC013968C9190
:103490001397882319F09381891312C015968C9184
:1034A0001597882319F0958189130AC014969C9169
:1034B000992321F081E02481291303C080E001C019
:1034C00081E08170089508950E94631A08958F5FC6
:1034D0008093E7020E94641A089583E08093E702D4
:1034E0000E94641A08950E94671A089581E08093EB
:1034F000E7020E94641A08950E94761A08950895BA
:1035000008950E94801A0895089508950E947F1AD0
:103510000895CF930E94841A0E949F110E94851AD9
:10352000C0E08C2F0E944810811105C0CF5FC431CC
:10353000C1F7CF91089581E0FCCF85B7806885BF42
:1035400085B7806885BF08951F921FB61F9211240A
:103550008F939F93AF93BF938091E802811113C023
:103560008091230390912403A0912503B091260319
:103570004196A11DB11D8093230390932403A09332
:103580002503B0932603BF91AF919F918F911F9018
:103590001FBE1F90189580912B03843031F10E943B
:1035A000D6021092E80288E190E020E40FB6F89489
:1035B000A895809360000FBE2093600083B7817F41
:1035C000846083BF83B7816083BF7894889583B715
:1035D0008E7F83BF0FB6F894A895809160008861B4
:1035E00080936000109260000FBE08950E945E06F6
:1035F0000E94DB02089582E084BD93E095BD9AEFBE
:1036000097BD80936E0008952FB7F894809123039F
:1036100090912403A0912503B09126032FBF089514
:10362000A4E0B0E0E6E1FBE10C941E248FB7F8942F
:1036300020912303309124034091250350912603C8
:1036400029833A834B835C838FBF69817A818B8125
:103650009C812496E2E00C943A249C014FB7F894A4
:103660008091230390912403A0912503B091260318
:103670004FBF821B930B0895A4E0B0E0E2E4FBE1AE
:103680000C941C24462F572FBC012FB7F89480911F
:10369000230390912403A0912503B09126032FBF0B
:1036A0008C019D01041B150B260B370BC901B801BA
:1036B0002496E4E00C94382478941F921FB61F924D
:1036C00011248F939F93AF93BF9380912303909185
:1036D0002403A0912503B09126030196A11DB11DDD
:1036E0008093230390932403A0932503B093260390
:1036F000BF91AF919F918F911F901FBE1F90189502
:1037000087E797E7909301088093000888E19AE0A3
:103710000FB6F894A895809360000FBE9093600058
:10372000FFCF88E19AE00FB6F894A89580936000E7
:103730000FBE90936000FFCF8EE1489B03C0815085
:103740008111FBCF489BFECF0895589880E28A955F
:10375000F1F7589A0895FC012BE02A95F1F728E03B
:1037600090E080E031E040E14A95F1F7880F489B16
:1037700002C08160932742E04A95F1F7000040E1E2
:103780004A95F1F721502111EECF20E12A95F1F76A
:1037900029B132E03A95F1F7000040E14A95F1F79E
:1037A000217092272081920F90830895A1E0B0E0CC
:1037B000ECEDFBE10C941A2419828C017C01E60EDD
:1037C000F11C0E151F0541F481E09981911180E0F3
:1037D0002196E6E00C9436240E949C1BCE010196B3
:1037E0000E94AB1BF80181938F01EBCF509A589A3E
:1037F00008955098589AE89AE9E6F0E080818C7F25
:10380000808308956150770B91E001C0990F6A950C
:10381000EAF7692F90E021E0611108C0992399F03F
:10382000589A80E28A95F1F758980895362F3823F0
:10383000332339F0589A922730E23A95F1F766959A
:10384000EBCF5898F9CF5898ECCFFF920F931F9376
:10385000CF93DF93EC018C01060F111DC017D10728
:1038600029F4CDB7DEB7E5E00C943724F9900E9437
:10387000A51B68E08F2D0E94021CF0CF1F920F92B3
:103880000FB60F9211240F931F932F933F934F93D3
:103890005F936F937F938F939F93AF93BF93EF93B8
:1038A000FF93CF93DF930F92CDB7DEB719820E94BB
:1038B0009C1BCE0101960E94AB1B082F0695069516
:1038C0000695982F92959570202F2570920F292F8D
:1038D000237096959695920F982797708981892BDA
:1038E00081115CC0043008F059C080E18A95F1F77D
:1038F000589A509A82E08A95F1F700C0589888E06B
:10390000089F80011124D801AD5EBE4F1696ED913F
:10391000FC9117973097A9F06091B5017091B601AD
:1039200014962D913C911597260F371F11968D9166
:103930009C911297680F791F13964C9113978C9155
:103940000995F801ED5EFE4F6381662351F02091E9
:10395000B5013091B60184819581820F931F0E9439
:10396000251C0E94A51B80E18A95F1F75898509874
:10397000589A80E18A95F1F7F801ED5EFE4F60817B
:10398000662351F02091B5013091B6018181928179
:10399000820F931F0E94D61B0E949C1B0F90DF91E9
:1039A000CF91FF91EF91BF91AF919F918F917F91B7
:1039B0006F915F914F913F912F911F910F910F90B8
:1039C0000FBE0F901F9018950F931F93CF93DF9307
:1039D0008C0104970CF065C0F894509A589885E0D3
:1039E0008A95F1F70000C02FC695C570802F8570AD
:1039F000C80F8C2F8370C695C69593E0000F111FDA
:103A00009A95E1F7C80FC8018C2BEC010E94A51B09
:103A100000C068E08C2F0E94021C90E19A95F1F79B
:103A20005098589A489B35C087E090E0489933C039
:103A3000F801ED5EFE4F6381662361F02091B501D0
:103A40003091B60184819581820F931F0E94D61B0D
:103A5000882321F10E949C1B80E28A95F1F75898F7
:103A6000509A90E19A95F1F7F801ED5EFE4F608172
:103A7000662351F02091B5013091B6018181928188
:103A8000820F931F0E94251C0E94A51B789481E041
:103A900009C000C0C7CF0197009749F4509A589ABF
:103AA000789480E0DF91CF911F910F91089500C02D
:103AB000BDCF8091F1020895282FCB01BA0130913A
:103AC0002B033430E1F42F702093E9002FEF309175
:103AD000E80035FD07C035ED3A95F1F700002150BB
:103AE0002111F5CF2091E80025FF09C040E050E00A
:103AF0000E94601F8091E8008E778093E80008950F
:103B0000BC0143E050E082E00E945C1D0895BC01CE
:103B100046E050E082E00E945C1D0895BC0140E256
:103B200050E082E00E945C1D0895CF93DF93D82F70
:103B3000C92F48E050E0682F792F81E00E945C1D7A
:103B400088E0ED2FFC2FA9EEB2E001900D928A954E
:103B5000E1F7DF91CF91089580912A03811109C087
:103B60000E94E8200E9445218091E20084608093B9
:103B7000E200089510922A0308950E94761A08958B
:103B80006091270381E0611101C080E00E946D1AFD
:103B9000089590912B0381E0943009F080E06091CA
:103BA00027030E94731A089542E061EC81E00E94AD
:103BB000642042E261EC82E00E94642090912B0339
:103BC00081E0943009F080E0609127030E94671A39
:103BD000089580912D03893089F148F4823009F4E9
:103BE000A0C0833009F45AC0813041F008958A3072
:103BF00009F487C08B3009F46CC0089580912C03C0
:103C0000813A09F04AC08091E800877F8093E800FC
:103C10008091300390913103892B61F060E080E066
:103C200090E070E00E94AF1F8091E8008B77809356
:103C3000E800089568E089EE92E0F3CF80912C03CC
:103C4000813259F58091300390913103029728F524
:103C50008091E800877F8093E8008091E80082FFF0
:103C600018C09091F3008091F200029731F4809196
:103C7000F100813011F0863021F48091F1008093C1
:103C8000F1028091E8008B778093E8000E949820F1
:103C900004C080912B038111E0CF089580912C0303
:103CA000813AD9F78091300390913103892BA9F79C
:103CB0008091E800877F8093E8008091E80080FF92
:103CC000FCCF80913D018093F1008091E8008E77D8
:103CD000DBCF80912C03813201F7809130039091EA
:103CE0003103892BD1F68091E800877F8093E8002B
:103CF0000E94982080912E0380933D010E945E06D1
:103D0000089580912C03813241F68091E800877FED
:103D10008093E8000E94982080912F038093F20204
:103D2000089580912C03813A09F0B7CF8091E80083
:103D3000877F8093E8008091E80080FFFCCF80912E
:103D4000F202C1CF84B7877F84BF0FB6F894A895DD
:103D500080916000886180936000109260000FBEC7
:103D600080E890E00FB6F894809361009093610032
:103D70000FBE0E947C1A08950E94E8200E944521EF
:103D8000E2EEF0E080818460808378940E94C82312
:103D9000089583E391E00E94B118089580912B0368
:103DA000853031F480912B03853019F00E94F61A8A
:103DB00008950E94CB1A80912903882399F30E94C9
:103DC000891A882379F30E944A1F0E945E06EACF6F
:103DD00008959A0140913203509133030E94F11EDD
:103DE0000895AC01CB01D901252F332723303105AC
:103DF000E1F058F421303105C9F122303105D9F113
:103E000080E090E020E030E01EC02132310521F159
:103E100022323105A9F7892BC1F16130710581F793
:103E200086EB90E027E732E00EC0CA0199274130C7
:103E300069F08230910569F0E6E2F2E0892B01F742
:103E4000849190E09F012D933C930895E4E1F2E08A
:103E5000F7CFECEEF1E0F4CF892B91F061307105F2
:103E600079F689E090E025E532E0EDCF82E190E05F
:103E700025E632E0E8CF8BE390E02AE232E0E3CFC0
:103E800089E090E02CE332E0DECF84E490E02DE2A4
:103E900033E0D9CF80E189BD82E189BD09B400FE5C
:103EA000FDCF8091D8008F7D8093D8008091E00075
:103EB00082608093E0008091E00081FDFCCF089556
:103EC000AF92BF92CF92DF92FF920F931F93CF9347
:103ED000DF936C01EB018A010E94B720F82E81115B
:103EE00023C00115110539F0F80180819181C81BAB
:103EF000D90BC80ED91EA12CB12C2097A9F0809106
:103F0000E80085FD22C08091E8008E778093E8006C
:103F100001151105A1F0F801808191818A0D9B1D89
:103F20009183808385E0F82E8F2DDF91CF911F91B3
:103F30000F91FF90DF90CF90BF90AF9008950E94B7
:103F4000B7208823E1F2F82EEFCFF60181916F01BF
:103F50008093F1002197FFEFAF1ABF0ACECFFC018B
:103F60009B0180913203909133038617970718F0D5
:103F7000672B61F0C90140E0009771F441110CC05A
:103F80008091E80082FF35C080E008958091E800CC
:103F90008E778093E800EECF20912B032223A9F1A6
:103FA0002530A9F12091E80023FD2DC02091E800E3
:103FB00022FDE6CF2091E80020FFDECF3091F30014
:103FC0002091F200009719F02830310558F041E0B7
:103FD0002830310509F040E02091E8002E77209349
:103FE000E800CACF41914093F10001972F5F3F4F06
:103FF000E9CF80912B03882341F0853041F08091F7
:10400000E80083FFBDCF81E0089582E0089583E05A
:104010000895FC019B018091320390913303861730
:10402000970718F0672B61F0C90140E0009771F421
:1040300041110CC08091E80082FF36C080E00895F5
:104040008091E8008E778093E800EECF20912B03DB
:104050002223B1F12530B1F12091E80023FD2EC0DB
:104060002091E80022FDE6CF2091E80020FFDECF7E
:104070003091F3002091F200009719F028303105BB
:1040800058F041E02830310509F040E02091E80087
:104090002E772093E800CACF44914093F1003196E7
:1040A00001972F5F3F4FE8CF80912B03882341F08A
:1040B000853041F08091E80083FFBCCF81E0089516
:1040C00082E0089583E00895982F973028F08F704C
:1040D0008093E90081E008959093E900242F762FE2
:1040E00050E0981731F07091EC002091ED00509164
:1040F000F00021FD02C09F5FE8CF3091EB003E7FD2
:104100003093EB003091ED003D7F3093ED00309126
:10411000EB0031603093EB007093EC002093ED00E6
:104120005093F0002091EE0027FDE5CF80E0089548
:1041300080912C0387FF13C08091E80082FF06C0A6
:104140008091E8008B778093E80004C080912B0376
:104150008111F2CF089580912B038823D9F38091A8
:10416000E80080FFF8CF8091E8008E77ECCF2091B7
:10417000E4003091E50095E6A9018091EC008170A2
:10418000882331F08091E80080FF06C080E0089528
:104190002091E80022FD1BC080912B03882391F021
:1041A000853091F08091EB0085FD10C02091E400F6
:1041B0003091E5004217530701F391509111DCCF84
:1041C00084E0089582E0089583E0089581E00895F1
:1041D0000E9457210E945F21E0EEF0E08081816023
:1041E0008083E8EDF0E080818F77808319BCA7EDB4
:1041F000B0E08C918E7F8C9380818F7E8083109233
:104200002A0308950F931F93CF93DF930E945721A2
:104210000E945F21C8EDD0E088818F7788838881F4
:104220008068888388818F7D888319BC10922B03D6
:1042300010922703109229031092280300EE10E039
:10424000F80180818B7F808388818160888342E050
:1042500060E080E00E946420E1EEF0E080818E7FEB
:104260008083E2EEF0E080818160808380818860DD
:104270008083F80180818E7F80838881806188833C
:10428000DF91CF911F910F910895E8EDF0E08081CB
:104290008F7E8083E7EDF0E080818160808384E021
:1042A00082BF81E080932A030E9402210895E8EDF5
:1042B000F0E080818E7F80831092E200089510925A
:1042C000DA001092E10008951F920F920FB60F923C
:1042D00011242F933F934F935F936F937F938F930B
:1042E0009F93AF93BF93EF93FF938091E10082FF81
:1042F0000BC08091E20082FF07C08091E1008B7FBC
:104300008093E1000E94C7238091DA0080FF19C0EA
:104310008091D80080FF15C08091DA008E7F809355
:10432000DA008091D90080FF94C080E189BD82E1EC
:1043300089BD09B400FEFDCF81E080932B030E946C
:10434000AC1D8091E10080FF19C08091E20080FFE8
:1043500015C08091E2008E7F8093E2008091E200A0
:1043600080618093E2008091D80080628093D800C1
:1043700019BC85E080932B030E94C01D8091E10051
:1043800084FF29C08091E20084FF25C080E189BDBF
:1043900082E189BD09B400FEFDCF8091D8008F7DF8
:1043A0008093D8008091E1008F7E8093E10080911E
:1043B000E2008F7E8093E2008091E2008160809332
:1043C000E20080912703882309F449C084E08093A8
:1043D0002B030E94C91D8091E10083FF29C08091B9
:1043E000E20083FF25C08091E100877F8093E10098
:1043F00082E080932B03109227038091E1008E7F4F
:104400008093E1008091E2008E7F8093E2008091B2
:10441000E20080618093E20042E060E080E00E9480
:1044200064208091F00088608093F0000E94BD1DA0
:10443000FF91EF91BF91AF919F918F917F916F917C
:104440005F914F913F912F910F900FBE0F901F9052
:10445000189519BC10922B030E94BA1D72CF80913F
:10446000E30087FF02C083E0B2CF81E0B0CF1F92AC
:104470000F920FB60F921124FF920F931F932F9359
:104480003F934F935F936F937F938F939F93AF93DC
:10449000BF93CF93DF93EF93FF9309EE10E0F80102
:1044A0008081C091EC00C795CC27C7958F70FC2EFA
:1044B000F82A1082C0EFD0E08881877F88837894C3
:1044C0000E948022F8011082888188608883CF2D25
:1044D000CF70C083FF91EF91DF91CF91BF91AF91EA
:1044E0009F918F917F916F915F914F913F912F910C
:1044F0001F910F91FF900F900FBE0F901F90189576
:10450000AAE2B0E0E6E8F2E20C941D248CE293E02B
:10451000FC0101962091F100208323E0843392076F
:10452000B9F70E94E91D8091E80083FF38C08091AF
:104530002C0390912D039A3090F5E92FF0E0E65F7F
:10454000FA4D0C940824803889F0823841F5809126
:1045500030038F70873018F58093E9008091EB006D
:1045600085FB882780F91092E90006C08091280316
:1045700090912903911182609091E800977F909328
:10458000E8008093F1001092F1008091E8008E77AE
:1045900023C0811116C080912E03813011F18091CA
:1045A000E80083FF0AC08091E800877F8093E800DD
:1045B0008091EB0080628093EB00AA96E3E00C947C
:1045C0003924823061F780912E03882389F010927C
:1045D000E9008091E800877F8093E8000E9498209E
:1045E000DECF81E0933009F080E080932903EFCFA4
:1045F000809130038F702FEF280F263080F6809344
:10460000E9002091EB0020FFE2CF933031F480915C
:10461000EB0080628093EB00DACF9091EB00906129
:104620009093EB0021E030E0A90102C0440F551F38
:104630008A95E2F74093EA001092EA008091EB003D
:104640008860E8CF8111ABCF10912E031F77809146
:10465000E3008078812B8093E3008091E800877FDE
:104660008093E8000E9498208091E80080FFFCCFB2
:104670008091E30080688093E30083E0111101C022
:1046800082E080932B038BCF8058823008F087CF55
:1046900080912E0390912F038C3D53E0950799F55F
:1046A00083E08A838AE289834FB7F894DE01139608
:1046B00020E03EE051E2E32FF0E050935700849178
:1046C00020FF03C082958F703F5F8F708A30C8F0E3
:1046D000895C90E08D939D932F5F243161F74FBFEC
:1046E0008091E800877F8093E8006AE270E0CE0165
:1046F00001960E94AF1F8091E8008B778093E800BD
:104700004ECF805DE6CF6091300370913103AE01F2
:104710004F5F5F4F0E94E91EBC01892B09F43FCF18
:104720008091E800877F8093E80089819A810E94C8
:104730000920E1CF803809F032CF8091E800877FEF
:104740008093E800809127038093F1001ECF8111B0
:1047500026CF90912E03923008F021CF8091E8006F
:10476000877F8093E800909327030E949820809190
:104770002703882331F084E080932B030E94D41D0B
:104780000ECF8091E30087FDF6CF81E0F5CF08954D
:10479000CF9380912B03882399F08091E900C091F9
:1047A000EC00C795CC27C7958F70C82B1092E900F5
:1047B0008091E80083FD0E948022CF70C093E900C1
:1047C000CF9108950E94E82010922B030895E8ED00
:1047D000F0E08081806180838AE18A95F1F700C0F2
:1047E0008091D9008170089597FB072E16F40094EC
:1047F00007D077FD09D00E94452407FC05D03EF480
:10480000909581959F4F0895709561957F4F08957C
:10481000EE0FFF1F0590F491E02D09942F923F9227
:104820004F925F926F927F928F929F92AF92BF92C0
:10483000CF92DF92EF92FF920F931F93CF93DF936C
:10484000CDB7DEB7CA1BDB0B0FB6F894DEBF0FBEC9
:10485000CDBF09942A88398848885F846E847D8416
:104860008C849B84AA84B984C884DF80EE80FD8018
:104870000C811B81AA81B981CE0FD11D0FB6F8948E
:10488000DEBF0FBECDBFED010895AA1BBB1B51E1DA
:1048900007C0AA1FBB1FA617B70710F0A61BB70BB0
:1048A000881F991F5A95A9F780959095BC01CD0155
:1048B0000895FB01DC0104C08D910190801921F461
:1048C00041505040C8F7881B990B0895FB01DC014B
:1048D00002C001900D9241505040D8F70895F999C7
:1048E000FECF92BD81BDF89A992780B50895A8E1C1
:1048F000B0E042E050E00C94B324DC01A40FB51FFB
:104900004150504048F0CB01840F951F2E910E94DA
:104910008E2441505040D0F70895262FF999FECFAC
:1049200092BD81BDF89A019700B4021639F01FBA02
:1049300020BD0FB6F894FA9AF99A0FBE089503961F
:10494000272F0E948E240E948D24252F0E948E24C2
:10495000242F0C948E240196272F0E948E240C94D1
:104960008D24DC01CB01FC01F999FECF06C0F2BD1C
:10497000E1BDF89A319600B40D9241505040B8F71D
:104980000895F894FFCF4A044A0491049104F60470
:1049900013057904790418058F05A005A005E7140F
:1049A0005B15EF14B914BD14F314C114F7140315F7
:1049B000CD145415D1140715D5140B153315D9146E
:1049C0000F153A15DF1415151D15C514FB14C91460
:1049D000FF14E3141915291543155215B314EB14DC
:1049E0006215211624162A163F163F163F163F164B
:1049F0003F163F163F163F162D16321636163C163A
:104A00004D16531657168C1892187C18861898183D
:104A10009E18A418A322C922CF22C922CF22222362
:084A20004423CF229A23A723AF
:104A280058027802F6F73332F594669736C6343171
:104A380035F40100000001000000000000000A0138
:104A4800000000040B000000000000280850011EB0
:104A58000A1401591D951D8E1D871D801D01E20038
:104A6800E900EA00B500B600B700CD008301CC002C
:104A78008A019201940121022302240225022602BE
:104A880027022A02B300B4006F0070009F01CB0117
:104A98009F02A002E200E900EA00B500B600B700F4
:104AA800CD008301CC008A019201940121022302E6
:104AB80024022502260227022A02B300B4006F004E
:104AC80070009F01CB019F02A0023234353331368A
:084AD800F7F6F5F400AA020054
:00000001FF
