:100000000C94D2020C94EF020C94EF020C94EF02C9
:100010000C94EF020C94EF020C94EF020C94EF029C
:100020000C94EF020C94EF020C941C280C94EF2813
:100030000C9463200C94EF020C94EF020C94EF02EA
:100040000C94EF020C94EF020C94EF020C94EF026C
:100050000C94EF020C941B210C94EF020C94EF0211
:100060000C94EF020C94EF020C94EF020C94EF024C
:100070000C94EF020C94EF020C94EF020C94EF023C
:100080000C94EF020C94EF020C94EF020C94EF022C
:100090000C94CE220C94EF020C94EF020C94EF021D
:1000A0000C94EF020C94EF020C94EF020000290074
:1000B0003500000030003200E200E0001E001400B5
:1000C00004001D001F001A0016001B004D004E000A
:1000D0004B004A0020000800070006002100150020
:1000E00009001900220017000A00050039002152FA
:1000F000E1002C0000004C002B0000000000490033
:100100002800000088001705E5002A0023001C00D5
:100110000B001100240018000D00100025000C0039
:100120000E0036004F005200510050002600120011
:100130000F00370027001300330038002D002F0078
:1001400034008700000089002E000000000001003C
:10015000E300000001000100010001003A0001007D
:10016000010001003B000100010001003C00010012
:10017000010001003D000100010001003E000100FE
:100180000100010001000100010001000100010067
:10019000010001000000010001000000000001005A
:1001A0000100000001000100010001000100010048
:1001B000010001003F0001000100010040000100BA
:1001C00001000100410001000100010042000100A6
:1001D00001000100430001000100010001000100D5
:1001E000010001000000010001000000000001000A
:1001F00001000000010001000100010001000100F8
:1002000001000100010001000100010001000100E6
:1002100001000100010001000100010001000100D6
:1002200001000100010001000100010001000100C6
:1002300001000100000001000100000000000100B9
:1002400001000000010001000100010001000100A7
:100250000100010001000100010001000100010096
:100260000100010001000100010001000100010086
:100270000100010001000100010001000100010076
:100280000100010000000100010000000000010069
:100290000100000001000100010001000100010057
:1002A0000100010001000100010001000100010046
:1002B0000100010001000100010001000100010036
:1002C0000100010001000100010001000100010026
:1002D0000100010000000100010000000000010019
:1002E0000100000001000100010001000100010007
:1002F00001000100010001000100010001000100F6
:1003000001000100010001000100010001000100E5
:1003100001000100010001000100010001000100D5
:1003200001000100000001000100000000000000C9
:10033000000000002A2B2800000000000000000040
:100340000000000000000029000000002C1E3420E6
:10035000212224342627252E362D3738271E1F200C
:100360002122232425263333362E37381F04050651
:100370000708090A0B0C0D0E0F1011121314151695
:100380001718191A1B1C1D2F3130232D3504050693
:100390000708090A0B0C0D0E0F1011121314151675
:1003A0001718191A1B1C1D2F3130354C0000000086
:1003B000000000000000000000000000000000003D
:1003C000000000000000000000000000000000002D
:1003D0007E0F00D4FFFFFFC70000007826037300E4
:1003E0006100740072006F006D0069002F006D00E5
:1003F00069006E0074006C00730070006C0069008E
:1004000074000000100373006100740072006F003C
:100410006D00690000000403090409025B00030188
:1004200000A0FA09040000010301010009211101E3
:1004300000012244000705810308000109040100AE
:10044000020300000009211101000122220007051A
:1004500082032000010705030320000109040200B4
:10046000010300000009211101000122B600070567
:1004700084032000011201000200000008EDFEEBE1
:10048000700100010200010660FF0961A10109621B
:10049000150026FF009520750881020963150026C6
:1004A000FF00952075089102C005010902A1018590
:1004B000020901A100050919012908150025019566
:1004C00008750181020501093009311581257F95E3
:1004D000027508810609381581257F950175088107
:1004E00006050C0A38021581257F950175088106DD
:1004F000C0C005010980A101850319012AB70015B3
:100500000126B700950175108100C0050C0901A1F5
:1005100001850419012AA002150126A00295017582
:10052000108100C005010906A1018506050719E033
:1005300029E71500250195087501810205071900B5
:1005400029EF1500250195F07501810205081901B3
:100550002905950575019102950175039101C00565
:10056000010906A101050719E029E71500250195F4
:100570000875018102950175088101050719002997
:10058000FF150026FF009506750881000508190172
:100590002905150025019505750191029501750341
:1005A0009101C00011241FBECFEFDAE0DEBFCDBF46
:1005B00011E0A0E0B1E0ECECF7E502C005900D928F
:1005C000A23DB107D9F723E0A2EDB1E001C01D9231
:1005D000A634B207E1F70E9494150C94802B0C947A
:1005E0000000982F942B9430B0F46431A0F4E62FDF
:1005F000F0E094E1899FE00DF11D1124EE0FFF1F43
:10060000EE0FFF1FE40FF11DEE0FFF1FE455FF4F2C
:1006100085919491089581E090E0089581E0089596
:100620000E940E03089581E008950E940E0308952C
:100630000E941503089508950E941B030895A6E0E3
:10064000B0E0E5E2F3E00C94F02A49835A839E83FC
:100650003091D90189819A8131111AC03E813323A9
:1006600099F0222389F00E94A608182F682F89810B
:100670009A810E94830869817A81812F0E94B00F3C
:100680002696E3E00C940C2B0E949408182FF3CFCD
:100690000E94A60869817A81F1CFFC01262F408152
:1006A000518162817381848195810E941F03089525
:1006B000CF93DF93D82FC92F61E00E944D036D2F98
:1006C0007C2F0E941003DF91CF910895CF93DF9389
:1006D000D82FC92F60E00E944D036D2F7C2F0E9400
:1006E0001C03DF91CF91089581E008950E94740367
:1006F0000895CF93C82F0E9477078C2F0E9476030E
:100700002FEF84E39CE0215080409040E1F700C04F
:100710000000CF91089581E00E9479030E943F215B
:10072000089580E00E9479030E94502108950F935C
:100730001F93CF93DF938C0161E00E944D03EC0186
:10074000B8010E941F1D882309F442C0B801CE01E0
:100750000E9418038823E1F1B801CE010E942D1CEC
:100760008823B1F1B801CE010E947F17882381F15F
:10077000B801CE010E945417882351F1B801CE016F
:100780000E946E1C882321F1F8018581882381F065
:10079000CA35FCE7DF0739F178F4C130ECE7DE0752
:1007A000F9F0C330FCE7DF07C9F0C115DC4771F091
:1007B000C8010E9413030DC0CB35ECE7DE07B1F092
:1007C000CC35DC47A9F70E94F80CF2CF0E948B03CE
:1007D00080E0DF91CF911F910F9108950E940A0D43
:1007E0000E949103F5CF0E94020DE2CF0E94060DF8
:1007F000DFCF0E9440200E94200408950E9424041C
:100800000E9445200895089581E008950895CF93AA
:10081000DF93D82F0E940404C82F882319F08D2F4E
:100820000E9406048C2FDF91CF9108950895CF93F5
:10083000C82F0E9403048C2F0E940704CF910895B3
:1008400080E00E94170408950E94751E0E941704FC
:100850000895CF930E94751EC82F8091D4018C17E4
:1008600079F0C093D4010E94CF206093D50170939A
:10087000D6018093D7019093D8018C2F0E94170442
:10088000CF910895ADE0B0E0E8E4F4E00C94F12AF3
:10089000488759876A877B878C879D8791110E943B
:1008A000030C1F8286E0FE013896DE01119601904E
:1008B0000D928A95E1F78D8181110DC029813A81D0
:1008C0004B815C816D817E818F810E94490B2D96C9
:1008D000E2E00C940D2BCE0101960E945803811189
:1008E000EDCFF5CFFC018481813021F480819181AD
:1008F0000E94CF080895662329F00E94ED180E94F7
:10090000C31908950E944B19FACFCF93C82F88239B
:1009100099F08CEF8C0F813A88F48C2F0E941F1F66
:10092000882329F08C2F0E94C41F0E949B0C8C2FBF
:100930000E94AD1F0E949B0CCF91089580E28C0F06
:10094000883048F4C77081E001C0880FCA95EAF783
:100950000E94E40BEFCF8BE58C0F833038F42C2F03
:100960002452330BC9010E94B21EE6CFE8E5EC0F1A
:10097000EB3150F4F0E0EE0FFF1FE75BFE4F80819C
:1009800091810E94D81ED8CF83E38C0F8331A0F6CB
:1009900061E08C2F0E947B04CFCF882381F19CEFF4
:1009A000980F913A28F40E94C41F0E949B0C08954E
:1009B00090E2980F983050F4877091E001C0990F41
:1009C0008A95EAF7892F0E94EA0BEFCF9BE5980FF3
:1009D000933028F480E090E00E94B21E089598E5DC
:1009E000980F9B3128F480E090E00E94D81E089573
:1009F00093E3980F933118F460E00E947B0408950C
:100A00001F93CF93DF93182FEB010E94850420974B
:100A100039F4812F0E94CD04DF91CF911F91089569
:100A20008FE99FE00197F1F700C000002197EFCF19
:100A300060E070E0893311F460E570E00E94000529
:100A40000895882321F00E94E40B0E949B0C0895D6
:100A5000882321F00E94EA0B0E949B0C0895A0E0DD
:100A6000B0E0E5E3F5E00C94EB2A6C01D62FC72F3C
:100A7000FC011581068102950F700E94D90BE82EAA
:100A80008823F9F0E12E1123E1F08C2F807F803450
:100A900061F080E28D0F8830F0F08C2F807E803204
:100AA00021F4D230C0F00023B1F08091FA0282FF2D
:100AB00012C082E00E94CB0C0E94D90B91E0E82E7C
:100AC000E926EC2FE295EF70C03CB0F5F0E0EE5770
:100AD000F44D0C94D42AE12CF4CF0C2F0F70C031BC
:100AE00010F00295007F112399F0002359F080E265
:100AF0008D0F883010F0D11107C0802F0E94E40BB9
:100B00000E949B0C8D2F51C0802F0E94F50BF8CFB7
:100B10008D2F0E94CD04002379F080E28D0F883064
:100B200010F0D11104C0802F0E94EA0B03C0802F67
:100B30000E94FB0B0E949B0CEE2089F00E94D50BBB
:100B400080FD0DC0F60115820E94CF0B0E94F107B7
:100B5000C6010E943E070E94CF0B0E94FD07CDB741
:100B6000DEB7E8E00C94072BFC2FFF70FF2EC07F50
:100B7000C03219F0F29480EFF822DD2341F0D13039
:100B8000D1F1112309F444C00023F1F0BBCF8091CF
:100B9000FA0282FD15C0112359F0FF2029F08F2D94
:100BA0000E94E40B0E949B0C80E00E948504C4CF4D
:100BB00080E00E94CD04FF2009F4BECF8F2DB4CF7A
:100BC000112369F0011104C08F2D0E942105B4CFBB
:100BD000013009F0B1CF8F2D0E941B0CADCF011158
:100BE000ABCF8F2D0E9428058F2D0E94270C8F2DB3
:100BF0000E940A0CA1CF112321F0063008F09CCFEF
:100C0000E3CF053008F098CF8F2D0E94280594CFB0
:100C10000023D1F3D93349F42FEF87EE93E021502D
:100C200080409040E1F700C000008D2F0E94CD046D
:100C300083CF8C2F869586958370882369F08130C9
:100C400009F07ACF8D2F9C2F9370111102C080E094
:100C500090E00E94D81E70CF8D2F9C2F93701111A1
:100C600002C080E090E00E94B21E66CF612F8D2FFF
:100C70000E947B0461CF8C2F8370811134C01111CD
:100C800024C04D2F429546954770440F440F8D2F39
:100C90008F70042E01C0880F0A94EAF7D071DD230B
:100CA00041F02FE030E001C0220F4A95EAF7D22F41
:100CB000D095C695C695C3708D2BC23071F0C330E8
:100CC00079F0C13039F00E94CD070E94751E0E9454
:100CD000170432CF0E94C707F8CF0E94D307F5CF81
:100CE0000E94C407F2CF112339F1C0FFEECF4D2F80
:100CF000429546954770440F440F8D2F8F70042EF8
:100D000001C0880F0A94EAF7D071DD2341F02FE08B
:100D100030E001C0220F4A95EAF7D22FD095C69550
:100D2000C695C3708D2BC23069F0C33071F0C130ED
:100D300031F00E941F08C9CF823038F2D8CF0E940C
:100D40001908C3CF0E942508C0CF0E94DF07BDCF7E
:100D5000CF70112339F08C2F0E94F1078D2F0E9444
:100D60002105B3CF8D2F0E9428058C2F0E94FD07EF
:100D7000ACCFD23F31F170F4D03FB9F0D13FB1F1F7
:100D8000112309F451C0002309F44BC08D2F0E9498
:100D900085049BCFD33FE1F0D43F21F11111F3CF74
:100DA000011150C08C2F8F71E1CF112341F005301C
:100DB00008F08BCF8C2F8F710E940D0886CF0530E5
:100DC000F7CF8C2F8F711111D1CF0E94F1077DCFFA
:100DD000112329F08C2F8F710E94E80776CF0E9493
:100DE000E40773CF8091FA0282FD06C08C2F8F71C9
:100DF000112309F4BBCFE9CF112349F0CF718C2F18
:100E00000E94F10763E08C2F0E94AD0C5ECF81E061
:100E10000E94CB0C023008F458CF82E00E94CB0C29
:100E200054CF8C2F8F71D1CF002309F4BBCFD9338E
:100E300049F4EFEFF7EE23E0E150F0402040E1F716
:100E400000C000008D2F0E94CD043FCF0F931F9351
:100E5000CF93DF93EC01688179818D810E94DC085A
:100E60008C010E942B080E94C307B801CE010E948A
:100E70002F05DF91CF911F910F910895CF93DF93AD
:100E8000EC018C81882399F0CE010E949703811197
:100E900011C00E94D90B882351F08D81882339F02D
:100EA0008091FA0282FF03C082E00E94CB0CDF91A6
:100EB000CF910895CE010E942607CE010E946603BD
:100EC000F6CF80E090E00E94B21E80E090E00E94A9
:100ED000D81E0E94030C0E949B0C0E94E0190E94E5
:100EE000C31908950E94DB1F0E94610708950E94A4
:100EF000F20B0E9472070895282F92959F709630EA
:100F000091F060F4925F9F70923030F481E0203F66
:100F100079F030F4283E30F080E008959A5FF3CF06
:100F2000243FD1F7089581E0283EE0F3213FF9CF37
:100F30000895FC018481882339F0808191810E9489
:100F4000CF080E947C07089580E00895A6E0B0E0F5
:100F5000ECEAF7E00C94F12A2696E2E00C940D2BD3
:100F6000A7E0B0E0E6EBF7E00C94F12A2796E2E088
:100F70000C940D2B08950E94BA0708950E94BB0798
:100F80008093F901089508950E94BE0708959091F5
:100F9000F901892B0E94BE0708959091F9018923D8
:100FA0000E94BE0708959091F90189270E94BE070B
:100FB00008950E94BA0708950E94D90708950E94D3
:100FC000DC078093F801089580E00E94DF07089510
:100FD00091E001C0990F8A95EAF7892F0E94DF07F7
:100FE000089521E030E001C0220F8A95EAF7809150
:100FF000F801822B0E94DF07089521E030E0A9016B
:1010000002C0440F551F8A95E2F7CA01809590915E
:10101000F80189230E94DF07089521E030E001C034
:10102000220F8A95EAF78091F80182270E94DF0754
:1010300008959091F801892B0E94DF0708959091FF
:10104000F80189230E94DF0708959091F80189270C
:101050000E94DF07089508959B01677091E001C029
:10106000990F6A95EAF763E0369527956A95E1F757
:10107000B901660F771F260F371FFA01E20FF31F22
:1010800040E050E0682F70E08191DF0111979B01F3
:10109000042E02C0369527950A94E2F72170219517
:1010A0002827292328272C934F5F5F4F4330510572
:1010B00059F708959C01A82FA77083E036952795CE
:1010C0008A95E1F7C901880F991F820F931FFB01D1
:1010D000E80FF91F40E050E080E0219130E00A2E57
:1010E00002C0369527950A94E2F721703327042E23
:1010F00001C0220F0A94EAF7822B4F5F5F4F433003
:10110000510559F70895282F862F943160F4243023
:1011100050F434E0939FB0011124620F711D4AED29
:1011200051E00E942C080895282F943168F48430EF
:1011300058F434E0939FC00111246AED71E0820FEE
:10114000911D0E945A08089580E00895A0E0B0E043
:10115000ECEAF8E00C94EC2A7C010091F801809113
:10116000F901082BC3E0D0E010E0C8010C2E02C04A
:10117000959587950A94E2F780FD09C02197A8F715
:10118000D12C8D2DCDB7DEB7E7E00C94082BDC2EEB
:10119000B7018C2F0E94BC0F019781F3F2CFCF9340
:1011A000DF93D82FC92F0E94A6086D2F7C2F0E9495
:1011B000BC0FDF91CF9108951F93CF93DF93162F2C
:1011C000D72F9091D901992341F0862F972F0E9414
:1011D000CF08DF91CF911F910895882381F0862F4A
:1011E000972F0E94A608C82F682F812F9D2F0E943D
:1011F0008308612F7D2F8C2F0E94BC0FEACF862F92
:10120000972F0E949408C82FF4CFE1E0F0E0DF01AF
:1012100002C0AA0FBB1F6A95E2F7BD01DF0102C041
:10122000AA0FBB1F4A95E2F76A2B01C0EE0F2A9561
:10123000EAF7962F9823961302C08E2B0895E09517
:101240008E230895242F462F682F8091F8010E9445
:1012500005090E94DF0708950F931F93CF93E09134
:10126000FA01C7E08091FB018E1304C0CF911F915A
:101270000F9108950E2F10E0CE9FF0011124E4503D
:10128000FE4F208131814281538164817581868145
:101290000E94B007F8013196E770E4CF2091340244
:1012A00030913502409136025091370260913802F8
:1012B0007091390280913A020E94B007089580919E
:1012C0003A02803178F480913902882359F0E09114
:1012D000FA012091FB01309135024091340257E030
:1012E0002E1301C008956E2F70E05E9FF00111244F
:1012F000DF01A450BE4F14968C911497882361F19E
:1013000011968C911197831327C08C91841324C05C
:1013100015968C91159781111FC012968D919C91F5
:10132000A0913602B09137028A1B9B0B883C910535
:1013300098F480913A028F70806180933A02EE5F58
:10134000FD4F80818F708061808384E392E00E94F2
:101350003E070E942C090895FB013196E770C0CF2B
:10136000E091FA019091FB0127E0E91302C080E0CF
:101370000895AE2FB0E02E9FF0011124E450FE4FEF
:101380003181361306C03081381303C035813413E0
:1013900004C0FD013196E770E8CF81E008958F9297
:1013A0009F92AF92BF92DF92EF92FF920F931F93A3
:1013B000CF93DF93CDB7DEB72D970FB6F894DEBF8E
:1013C0000FBECDBF8C0186E0F801DE0118960190BA
:1013D0000D928A95E1F7F801E080F580A280B38054
:1013E000848194E3892E92E0992E90913802911194
:1013F0001BC0882309F4FCC0FF2009F43DC1C801CB
:101400000E949907882309F437C187E0F801D401C5
:1014100001900D928A95E1F7C4010E9472040E9426
:101420005F090E944E09E4C0D09039022091360233
:1014300030913702A501421B530BDD2009F4DBC0BC
:10144000483C510508F0A6C0882309F4D1C090910A
:101450003502918080913A02803108F06BC0991278
:1014600028C0909134029E1124C0F1105DC08F708D
:10147000806180933A020E944E0984E392E00E94C8
:101480003E0780913A02F8018683F12C8F2D2D962C
:101490000FB6F894DEBF0FBECDBFDF91CF911F9185
:1014A0000F91FF90EF90DF90BF90AF909F908F9043
:1014B0000895F11039C040E0692D8E2D0E94B009C9
:1014C00040E0692D8E2D0E94B009F82E8111DDCFEC
:1014D000888599850E94CF08292F22952F709034F6
:1014E00050F49F70223080F0992399F0F801968192
:1014F000903178F4CBCF2A5F2F70223078F0C8017A
:101500000E943E07FD2CC2CF992319F0882309F4CD
:10151000BDCF805E883008F4B9CFF1CF803F08F4AA
:10152000B5CF815F8230F7CF80913A02816080939E
:101530003A02ABCF991207C0909134029E1103C0BA
:10154000FF2009F479C0C8010E949907882309F493
:1015500093C0FF2009F490C080913A02803288F055
:1015600020913402309135023A832983BC82AB82C8
:10157000909138029D831E828F83CE0101960E9436
:101580003E0787E0F801A4E3B2E001900D928A954E
:10159000E1F745CF90913A029031A0F44885598502
:1015A0006A857B858C859D850E94A60784E392E0F1
:1015B0000E943E0787E0F40111928A95E9F70E94A4
:1015C0004E0963CF8823A1F0209135028181281331
:1015D000BACF809134028E11B6CFF110B4CF96837A
:1015E000C8010E943E0787E0F40111928A95E9F74D
:1015F000FF24F3944BCF483C510508F041C08823A9
:10160000B9F3FF20C9F190913502818198132AC066
:10161000809134028E1126C080913A0280FD19C05B
:101620008031B8F08683807F803F39F08681982FA3
:10163000907F905F8F70892B8683C8010E943E0740
:1016400087E0F801A4E3B2E001900D928A95E1F7FA
:10165000E8CE87E0F801A4E3B2E001900D928A950C
:10166000E1F7C6CFC8010E94990781118ACF809106
:101670003A02816080933A02C8010E943E07B8CFC7
:10168000488559856A857B858C859D850E94A6073E
:1016900091CFAEE0B0E0EFE4FBE00C94F02A2887B5
:1016A00039874A875B876C877D878E87CE0108964E
:1016B0000E94CF098823B1F06C85662341F028850C
:1016C00039854A855B857D858E850E94B00717E048
:1016D0008091FA019091FB0189133EC02E96E3E0C0
:1016E0000C940C2B87E0FE013896DE0111960190D8
:1016F0000D928A95E1F72091FB014091FA018C85CA
:10170000882329F330E0C90101968770992750E0BA
:101710008417950799F097E0929FD001939FB00DA1
:101720001124A450BE4FFE01319601900D929A955E
:10173000E1F78093FB010E942C09C9CF0E94770733
:101740001092FB011092FA0187E0E4E3F2E0DF017E
:101750001D928A95E9F7BBCF189FC00111248450D0
:101760009E4F0E94CF09882309F4B8CFE091FA0177
:101770001E9FF0011124E450FE4F208131814281EF
:1017800053816481758186810E94B0078091FA013E
:1017900090E00196877099278093FA0199CF809104
:1017A0006302869586958695089580916302877079
:1017B000089590916302977081E0911101C080E0DB
:1017C000089580918F02089590918F02982B9093A5
:1017D0008F020895982F909580918F02892380938E
:1017E0008F02089510928F02089590918E02982B87
:1017F00090938E020895982F909580918E02892360
:1018000080938E02089510928E02089508950E948A
:10181000060C089590916402292F2823222331F089
:1018200080958923809364020E94070C089508958F
:101830000E94170C089590916502292F28232817DC
:1018400029F0982B909365020E94180C08959091AE
:101850006502292F2823222331F080958923809344
:1018600065020E94180C089580916502882329F072
:101870001092650280E00E94180C0895CF93DF93C8
:10188000C0918F0280918E02C82BD0916502DD231A
:1018900031F00E94FE1E81110E94340CCD2B8C2F42
:1018A000DF91CF910895CF93DF93C0910201D09142
:1018B00003010E943E0C8883C0910201D091030174
:1018C00048E050E06BE572E0CE010E94182B892BB6
:1018D00059F088E0FE01ABE5B2E001900D928A95E7
:1018E000E1F7CE010E94891EDF91CF910895CF9339
:1018F000DF93C0910001D09101010E943E0C8983C9
:10190000C0910001D091010140E250E06BE372E030
:10191000CE010E94182B892B59F080E2FE01ABE327
:10192000B2E001900D928A95E1F7CE010E94941EDB
:10193000DF91CF91089580914801882339F08091FB
:10194000F90287FF03C00E94770C08950E94530C90
:10195000089508950E94A90C08959091FA0292FFAB
:1019600011C098E0899F90011124622B609363025B
:101970000E94F107809163028695869586950E9464
:10198000AA0C08950E94F10708951092630280E066
:101990000E94AA0C089590916302809589238093F8
:1019A0006302282F277021110DC0891759F09091DB
:1019B000FA0292FF07C08695869586950E94FD07DC
:1019C0000E94C50C08959091FA0292FB222720F9FB
:1019D000281769F080FB92F99093FA028091F9023E
:1019E0009091FA020E942C0D82E00E94CB0C089587
:1019F0008091FA0282FB882780F991E089270E9472
:101A0000E30C089581E00E94E30C089580E00E94B9
:101A1000E30C08956FEF7FEF80E090E00E946A2B67
:101A2000089580E090E00E94362B863E9E4F19F488
:101A30000E94A91C089580E0089582E090E00E9431
:101A40002E2B089583E090E00E942E2B089584E0D1
:101A500090E00E94362B0895BC0184E090E00E9443
:101A60006A2B0895AB01BC018FE090E00E945E2BD1
:101A70000895AB01BC0183E190E00E945E2B0895C4
:101A800060E070E0CB010E94390D089560E070E0E5
:101A9000CB010E94320D0E94400D0895A8E0B0E0F5
:101AA000E4E5FDE00C94F12A66EE7EEF80E090E044
:101AB0000E946A2B60E082E090E00E944C2B81E063
:101AC0008093F90161E083E090E00E944C2B60E09C
:101AD00074E184E090E00E946A2B60E086E090E090
:101AE0000E944C2B6FEF87E090E00E944C2B40E06F
:101AF00050E0BA0188E090E00E945E2B60E084E252
:101B000090E00E944C2B60E087E190E00E944C2B1B
:101B100060E08CE090E00E944C2B60E08DE090E073
:101B20000E944C2B19821A821B821C821D821E82EB
:101B30001F82188648E050E068E170E0CE0101960F
:101B40000E943C2B40E050E0BA0180E290E00E940D
:101B50005E2B80E00E94C21C0E94011D0E94460D67
:101B60002896E2E00C940D2B0E944E0D0895682FEC
:101B70008EE090E00E944C2B0895A6E0B0E0E3ECEC
:101B8000FDE00C94EF2A0E94C3208C01809190020A
:101B9000909191028017910779F019821A820E9420
:101BA000C320BC0149815A8180E090E00E94420438
:101BB00010939102009390022696E4E00C940B2B74
:101BC0000E94EA106093AA027093AB028093AC0269
:101BD0009093AD026093A6027093A7028093A8022F
:101BE0009093A9020895089508950E94F30D089511
:101BF00008950E94F80D089581E008958DE191E126
:101C00000E94A1150E94F40D0E94F50D08950E94F6
:101C100045130895089508950E940A0E0E940B0E20
:101C200008950E943C110E94160408950E94BA2053
:101C30000E94B4100E94111D0E944B130E94691251
:101C40000E94110E0E94A6150E945D130E94F90DBC
:101C50000895A6E0B0E0EFE2FEE00C94E82A0E94CE
:101C6000FC0D81110CC00E94BD0D0E9445130E9405
:101C7000011A0E9429042696EBE00C94042B0E9482
:101C8000B61282E9A82E82E0B82E750110E0F701A5
:101C900001917F01812F0E945F111F5F143109F4B0
:101CA00043C00817A1F38091AE0281FD0E94651127
:101CB0000E94070EC82E00E099249394802F0E9462
:101CC0005F11182FF50191915F01891739F1D82E15
:101CD000D926F12CEE24E3948E2D8D218823B1F0AA
:101CE000CC20A1F0F9820A830E94C3209C838B83BD
:101CF0009D8291E08E2D8123811101C090E0498168
:101D00005A816B817C818D810E944204F394EE0C98
:101D1000F4E0FF12E1CFF501319710830F5F04313A
:101D200069F60E94E00DA1CF0813BDCF9CCF1F9391
:101D3000CF93DF930E94C10FEC01811522E592073A
:101D400008F053C0811540E5940708F0DDC0803EDF
:101D50009105F8F48D3C910508F0AEC0883A9105E4
:101D600080F4853A910508F099C08130910521F001
:101D70000497813A910550F4CE01DF91CF911F91E4
:101D80000895885A91094B9708F48BC0C0E0D0E0C1
:101D9000F3CF811550E49507F8F4C11580E2D80718
:101DA00008F0CBC0C83ED10538F3CE019A95811515
:101DB0009F4160F78D2F0E946510182FCE01992743
:101DC0000E94C10F212F30E0322F2227E901CC27BA
:101DD000DF71C82BD92BD0CF99270E94C10FCC27F8
:101DE000DF70C82BD92BD06AC7CF803842E5940763
:101DF000C8F5803652E5950708F067C0C03482E523
:101E0000D807B0F08C2F86958695877020E2829F48
:101E1000C0011124C37021E030E0A90102C0440FC9
:101E2000551FCA95E2F7EA01C82BD92BDC68A4CF6D
:101E3000C03252E5D50708F041C08C2F86958695B3
:101E400020E2829FC0011124C37021E030E0A9018B
:101E500002C0440F551FCA95E2F7EA01C82BD92BDF
:101E6000DD688ACF803C52E5950760F48F71C03AF7
:101E7000D24508F03FC090E0982F8827EC01C46F4E
:101E8000D06A7ACF805C9245809708F07FCFDC2FB4
:101E9000CC27CC27DF71C06FD06A6ECFA497D064F7
:101EA0006BCFC85AD0E0CC0FDD1FC158DE4F099070
:101EB000D881C02DD46460CFD0655ECFCF71D0E023
:101EC000DC2FCC27C16FD06A57CF86958695877057
:101ED00020E2829FC0011124C37021E030E0A901FB
:101EE00002C0440F551FCA95E2F7EA01C82BD92B4F
:101EF000DA6842CF0E946510C82FD0E0DC2FCC27D3
:101F0000CC27DF71D06238CF8F710E94651065E0F9
:101F1000D695C7956A95E1F7CF70D0E0DC2FCC2736
:101F2000282F30E084FF05C054E0220F331F5A955C
:101F3000E1F7C22BD32BD0691FCF8D2F8F710E9459
:101F40006510182FCE0199270E94C10F212F30E074
:101F5000322F222722273F71282B392BE901D2CF9C
:101F6000462F672F743128F4443018F40E947216FB
:101F7000089580E090E008950E94B00F0E94970EAF
:101F80000895803E9105D1F1C8F48133910509F49B
:101F90007FC048F48932910509F46FC08A329105F7
:101FA00009F47DC0089589339105E1F082389105E7
:101FB000C9F08533910509F45BC00895843E91050D
:101FC000D1F148F4823E910531F1833E910541F112
:101FD00081EE90E00895863E9105C1F1873E91051E
:101FE000E1F108952091F9022370211165C020913B
:101FF000FA0223FF14C089E290E008952091F902CB
:1020000020FD43C03091FA0230FF09C024FF4EC0CA
:1020100080E090E008952091F90222FDF7CF089525
:102020002091F90222FD45C03091FA0230FD44C0F2
:1020300024FFF5CFEDCF2091FA0221FFF0CF809160
:10204000F90284FDE5CF87EE90E008952091F90232
:1020500023FFE5CF24FDDCCFF6CF2091F90223FD4D
:102060002EC03091FA0231FFE3CF84EE90E0089564
:102070002091F90225FFD3CFBECF2091F90225FD93
:1020800021C02091FA0223FFCACF89E390E008958E
:102090002091F90226FFC3CF8AE290E008952091B3
:1020A000F90226FFBCCF81E390E0089583EE90E033
:1020B000089582EE90E0089580EE90E0089586EE17
:1020C00090E0089585E390E0AACF9091F90292FF05
:1020D00010C041E0282F2471243009F040E031E0A5
:1020E000282F2871283009F030E0431711F02CE038
:1020F000822793FF10C041E0282F2471243109F07A
:1021000040E031E0282F2871283109F030E04317F2
:1021100011F02CE082273091FA0230FF10C051E01C
:10212000282F2171213009F050E041E0282F28713B
:10213000283009F040E0541711F029E0822731FFE0
:1021400010C041E0282F2171213109F040E031E039
:10215000282F2871283109F030E0431711F029E0C9
:10216000822794FD877E08951092F5021092F60260
:102170001092F7021092F8020895CF92DF92EF9238
:10218000FF92CF93DF9300D000D0CDB7DEB76B01C5
:102190007C010E944513811112C00E94CF206983E7
:1021A0007A838B839C83C61AD70AE80AF90AC092FD
:1021B000F502D092F602E092F702F092F8020F9048
:1021C0000F900F900F90DF91CF91FF90EF90DF90E5
:1021D000CF900895A4E0B0E0E0EFF0E10C94F12A94
:1021E0000E944513882371F00E94CF2069837A836F
:1021F0008B839C8369817A818B819C812496E2E028
:102200000C940D2B0E94CF2069837A838B839C834F
:102210008091F5029091F602A091F702B091F80238
:1022200029813A814B815C81280F391F4A1F5B1F2E
:1022300029833A834B835C83DDCF80E008950E943D
:102240000A0D08950E94B6122FEF86E791E0215003
:1022500080409040E1F700C000000E94B61280E08C
:102260000E945F1180FF04C00E941F110E943F2145
:1022700008950E94221108950E94110D811102C03B
:102280000E94B40D0E941D0D8093AE020E94270D86
:102290009093FA028093F9020E9439110E94220D54
:1022A0000E94C4078091F8010E94DC0708950895F8
:1022B0000E945711089508950E945B110895E82F18
:1022C000F0E0E05FFC4F80810895089580EA8A95F0
:1022D000F1F7089500C008950E94661108950895C9
:1022E0000E946F110895AAE0B0E0E9E7F1E10C94D3
:1022F000EC2A0E944513182F60912403882309F4C7
:1023000045C01A821982FE01339688E0DF011D92D2
:102310008A95E9F7862F90E032977F01BF01805FB1
:102320009C4F0E946B13DE2C0F2D8823B9F08091F7
:10233000FB0290E04AE050E0B701805F9C4F0E94B2
:10234000182B21E02093AF02892B99F410E00E9412
:102350005C11812F2A96E7E00C94082B8091AF0244
:102360008823A1F38AE0D7011D928A95E9F710929C
:10237000AF02A091FB02B0E0A05FBC4F8AE0ED2D60
:10238000F02F01900D928A95E1F7E1CF70E0605F48
:102390007C4F8091FB0290E0805F9C4F0E9439143B
:1023A0000E947011D6CFF894E82FE295EF70F0E01C
:1023B00041A18F7021E030E0B90102C0660F771FA4
:1023C0008A95E2F7CB01962F9095942391A392A141
:1023D000892B82A3789408950F931F93CF93DF9353
:1023E000C8E0D1E089918F3F11F00E94D31181E0C4
:1023F000C231D807B9F7C4E0D1E008E011E0899113
:102400008F3F11F00E94D3110C171D07C1F7DF9108
:10241000CF911F910F910895A0E0B0E0E2E1F2E1C9
:102420000C94EB2AEC01D62E062F10E0C801885F31
:102430009E4F7C01FC0180818F3F09F445C0F894D8
:10244000E82FE295EF70F0E091A18F7021E030E08D
:1024500001C0220F8A95EAF7892F822B81A382A1DE
:102460002095282322A378940E946A11E4E0F1E0E9
:1024700091E0C12C81918F3F81F0A82FA295AF7080
:10248000A05EB0E02C9130E08F7002C035952795AA
:102490008A95E2F72170892F211180E0C82A990FCF
:1024A00081E0E830F80731F7F70180818F3F11F0C4
:1024B0000E94D31161E0C11001C060E08D2D0E9427
:1024C0006C11C00FD11FC882CDB7DEB7E8E00C9405
:1024D000072BAAE0B0E0EFE6F2E10C94F12A80913C
:1024E000120181111EC08AE0E5EBF1E0DE011196D8
:1024F00001900D928A95E1F78AE0FE013196A8E0FD
:10250000B1E001900D928A95E1F784E9809304018E
:1025100086E68093050187E98093060186EC809327
:1025200007018091120190E0811101C09AE090931F
:1025300024038AE0891B8093FB020E94EC1184E152
:10254000E0E1F3E0DF01982F1D929A95E9F7ECEFB7
:10255000F2E0DF011D928A95E9F78AE00E94F71206
:102560000E9458112A96E2E00C940D2BA4E1B0E0F1
:10257000ECEBF2E10C94EE2A1A821982FE013396FA
:1025800082E1DF011D928A95E9F7F12C8E010F5F40
:102590001F4F6F2DC8010E940C12F394BAE0FB127A
:1025A000F8CF44E150E0B8018CEF92E00E94182B84
:1025B00021E0892B99F420E06091240370E0605FB2
:1025C0007C4F4AE08CEF92E00E94F812182F0E9494
:1025D0007311812B6496E5E00C940A2B84E1F801D9
:1025E000ACEFB2E001900D928A95E1F7E5CF089546
:1025F000A0E0B0E0EEEFF2E10C94EB2AD82EE92E49
:10260000F62ED72F042FC22F222379F081E080935A
:10261000B2020E94C3209093B1028093B00280E086
:10262000CDB7DEB7E8E00C94072BC090B202CC2007
:10263000B1F38091B0029091B1020E94EC20059715
:1026400070F310E0A8016D2D7E2D8F2D9D2F0E941F
:10265000182B892B41F0A8016D2D7E2D8F2D9D2FDC
:102660000E94252BCC2D1092B2028C2FD9CFCF9364
:102670000E949F2AC82F811102C00E949A2A8C2F83
:10268000CF9108958091B60208958091B502089582
:102690000E94451308950E9437138093B5020E944B
:1026A00048138093B6020E944213809312010E9445
:1026B000451381110E94A11308950E9445138111B1
:1026C00002C00E94A413089581E09091B7029A304D
:1026D00008F080E008950F931F93CF93DF93EC01F0
:1026E000162F072F8091B7028A3090F4612F702F38
:1026F000CE010E943614811121C08091B7028F3F14
:10270000B1F40E94C3209093B4028093B30209C035
:102710008091B3029091B4020E94EC20843F9140DA
:1027200028F780E0DF91CF911F910F9108958F5F7F
:102730008093B7028A3028F781E0F4CF1092B70275
:10274000FBCF0E945B21089582E30E94C822089576
:102750000F931F9398E08902F0011124ED5EFE4F64
:1027600026813781232BA1F08093290360911401E6
:10277000709115012091130130E0AB01475D5C4F72
:1027800004E610E082E30E944A221F910F9108950F
:1027900080E090E0FACFA0E0B0E0E1EDF3E10C944E
:1027A000E42A582EFA0159016801C82F880FDD0B61
:1027B000EF2B59F4852D0E94A81397FF2CC080E0C1
:1027C000CDB7DEB7EFE00C94002BCE0123E0880FED
:1027D000991F2A95E1F7DC01AD5EBE4FEC90F12C1C
:1027E0004E155F0508F47A018D5E9E4FFC018180D5
:1027F0009280C401875D9C4F3C01A7010E94252B5C
:1028000004E610E09701A301682D82E30E944A22AA
:1028100097FFD0CFD4CFC114D10411F481E0D0CF31
:1028200083E0CC0FDD1F8A95E1F7FE01ED5EFE4FE0
:10283000E380F12CCE14DF0408F47601CD5EDE4F88
:102840006C817D81AB01475D5C4F04E610E0970130
:1028500082E30E94752297FDB2CF6C817D81675D16
:102860007C4FA701C5010E94252BD8CF0E943715A8
:1028700008950E9450150895A8E0B0E0E2E4F4E164
:102880000C94EF2A8091CA029091CB02A091CC02C5
:10289000B091CD02BC01CD010E94FB2011E0643655
:1028A00071058105910520F10E94EA10DC01CB0140
:1028B0000296A11DB11D89839A83AB83BC8300E07E
:1028C00010E020E030E044E050E0BE016F5F7F4F59
:1028D00083E00E94CB13182F882351F00E94CF2051
:1028E0006093CA027093CB028093CC029093CD0286
:1028F000812F2896E4E00C940B2BAFE0B0E0E3E8E6
:10290000F4E10C94E92A7B01A090C001B090C101D0
:1029100001E010E09E01255F3F4F40E050E060E0A5
:1029200070E081E00E94CB13182F882309F44DC07A
:10293000650182E0C80ED11C8091C6029091C70249
:10294000A091C802B091C902BC01CD010E94FB2038
:102950006C877D878E879F87643671058105910519
:1029600060F10AE010E09E012F5F3F4F40E050E031
:1029700060E070E082E00E94CB13182F6AE070E004
:10298000C6010E94A7159B8598132AC0112341F107
:102990000E94CF206093C6027093C7028093C80242
:1029A0009093C9028AE0FE013196ACEBB2E001904F
:1029B0000D928A95E1F781E014C06AE070E0C601EB
:1029C0000E94A7159B858913CCCF8AE0F50132962A
:1029D000DE01119601900D928A95E1F71111E2CF77
:1029E00080E09AE0ECEBF2E0D70101900D929A952D
:1029F000E1F72F96EAE00C94052BA0E0B0E0E3E0CD
:102A0000F5E10C94E92AF82EE92EB62EA72E8A01BC
:102A10000E946413CC24C394D12C882319F08AE03B
:102A2000C82ED12CC1E0D0E06B2D7A2D8F2D9E2D9C
:102A3000F8010995811116C02196CC16DD0694F097
:102A4000CC9FC001CD9F900D900D112420E030E06F
:102A500045E34A95F1F700002F5F3F4F28173907EC
:102A6000B9F7E2CFCDB7DEB7EAE00C94052B0F93B0
:102A70001F93CF93DF93D82FC92F8B014DE754E1DC
:102A80000E94FD14882339F04CE354E1B8018D2FE6
:102A90009C2F0E94FD14DF91CF911F910F910895FB
:102AA0000F931F93CF93DF93FB01C091C001D0918F
:102AB000C101CE0102962AE0DC0101900D922A9517
:102AC000E1F76AE070E00E94A71589836C857D8537
:102AD0008E859F850091B8021091B9022091BA02AB
:102AE0003091BB02601771078207930751F0609322
:102AF000B8027093B9028093BA029093BB020E940D
:102B0000BD10DF91CF911F910F9108950E94F42481
:102B10000E94160E0E94012508950E9406250E941B
:102B2000290E0E94202508950E945C200E94DA242C
:102B30000E94FE0D0E9486150E948D150E940C0EAB
:102B4000FBCF9093D3018093D20108950895FC01A7
:102B5000680F791F8FEF91E3E617F70709F40895DF
:102B60002191822728E030E087FF08C0880F89275D
:102B70002150310921153105B9F7EECF880FF8CF73
:102B800084E0089598E0699FB001112450E0440F5B
:102B9000551F640F751F90EA899F600D711D1124E8
:102BA000CB01899608950F931F93CF93DF93982FAE
:102BB000942B9430B8F46431A8F40E94C2158C01AF
:102BC0000E942E2BC82FD0E0DC2FCC27C801019605
:102BD0000E942E2B9E01282BC901DF91CF911F91BE
:102BE0000F91089580E090E0F8CF0F931F93CF935B
:102BF000DF93122F032F982F942B943068F46431B5
:102C000058F40E94C215EC01602F0E944C2B612FDA
:102C1000CE0101960E944C2BDF91CF911F910F9115
:102C200008951F93CF93DF93D0E0C0E011C0412FF0
:102C30006C2F8D2F0E94F1029C01412F6C2F8D2F44
:102C40000E94F5151F5F143091F7CF5FC43111F06A
:102C500010E0EDCFDF5FD43041F7DF91CF911F91CE
:102C60000895EF92FF920F931F93CF93DF938C0100
:102C7000EA017A01E60EF71ECE15DF0529F4CDB77D
:102C8000DEB7E6E00C94092B003882E0180740F428
:102C9000C80189960E942E2B89930F5F1F4FECCF9E
:102CA00080E0FACFEF92FF920F931F93CF93DF93C1
:102CB0008C01EA017A01E60EF71ECE15DF0529F434
:102CC000CDB7DEB7E6E00C94092B003882E0180798
:102CD00028F46881C80189960E944C2B21960F5FC9
:102CE0001F4FEBCF982F942B943028F4643118F4B5
:102CF0000E94D315089580E090E0089580E1089542
:102D000087E591E00895EF92FF920F931F93CF9381
:102D1000DF938C01EA017A01E60EF71ECE15DF057E
:102D200029F4CDB7DEB7E6E00C94092B073581E036
:102D3000180748F4C80187559D4F0E942E2B899390
:102D40000F5F1F4FEBCF80E0FACFEF92FF920F9310
:102D50001F93CF93DF938C01EA017A01E60EF71EF1
:102D6000CE15DF0529F4CDB7DEB7E6E00C94092BCC
:102D7000073581E0180730F46881C80187559D4FF9
:102D80000E944C2B21960F5F1F4FEACFCF93DF930A
:102D9000C9EAD2E060E0CE010E944C2B2196C11519
:102DA00084E0D807B9F7DF91CF910895A8E0B0E0AB
:102DB000ECEDF6E10C94EB2AF82E2FE0281708F43E
:102DC0006FC08FEF93E00E942E2B811169C009EA3A
:102DD00012E0F11038C01A821982FE01339686E0A3
:102DE000DF011D928A95E9F76801BFEFCB1ADB0A74
:102DF000C8010E942E2B89831A82882309F450C0AF
:102E00008130D1F4780122E0E20EF11CC6010E946B
:102E10002E2B8A83882309F443C09FEF980F9330A9
:102E2000F8F4680183E0C80ED11CC7010E942E2B64
:102E30008B838823A9F11C8260E0CE0101960E9459
:102E4000571B8601D1CF011584E0180749F1C8014D
:102E50000E942E2B0F5F1F4F8111F5CFFA94B9CF2F
:102E60008430B9F402E010E0C701AFEFEA1AFA0AC1
:102E70000E942E2BE1E0F0E0EC0FFD1FE00FF11FB0
:102E80008083882369F08C3731F4FE01E00FF11F55
:102E900012826701D1CF0F5F1F4F0730110521F755
:102EA0002896E8E00C94072BCF93DF93EB01863153
:102EB0009C4719F50E94E10B9D819923A1F08A7A24
:102EC00091E0811101C090E09093CE02882349F0F7
:102ED00085E30E94AD1F0E949B0C80E0DF91CF91A3
:102EE000089589E2F6CF8091CE02882321F085E310
:102EF0000E94C41FF0CF89E2FBCF81E0EFCFCF93D8
:102F0000DF93EC01FB018581882309F4D2C09E0187
:102F100030572332310508F0B2C00E94270D90933C
:102F2000FA028093F902FE01E150F047E232F10526
:102F300020F4E257F44D0C94D42A8091F902816078
:102F40008093F90293C08091FA0288608093FA021C
:102F50008DC08091F9028260F3CF8091F902846084
:102F6000EFCF8091F9028860EBCF8091FA02816007
:102F7000EDCF8091FA028260E9CF8091F902806101
:102F8000DFCF8091F9028062DBCF8091F90280640B
:102F9000D7CF0E9477078091F9028068D1CF8091C6
:102FA000F9028C60CDCF8091FA028360CFCF8091FF
:102FB000F9028E7FC5CF8091FA02877FC7CF8091BB
:102FC000F9028D7FBDCF8091F9028B7FB9CF8091BF
:102FD000F902877FB5CF8091FA028E7FB7CF8091BB
:102FE000FA028D7FB3CF8091F9028F7EA9CF8091B5
:102FF000F9028F7DA5CF8091F9028F7BA1CF0E942E
:1030000077078091F9028F779BCF8091F902837FB8
:1030100097CF8091FA028C7F99CF8091F90282FB41
:10302000992790F921E0922790FB82F990FB83F990
:1030300087CF8091FA02982F909591708E7F892B7F
:1030400090FB81F983CF9091F902892F8F7B96FFB6
:10305000806476CF0E9477079091F902892F97FBC1
:1030600087F980586DCF81E00E94B70D8091F902F9
:103070009091FA020E942C0D0E94770780E0DF9168
:10308000CF91089580E0F0CF9091F902892F8F7E43
:1030900094FF806155CF9091F902892F8E7F90FF28
:1030A00081604ECF9091FA02892F877F93FF8860CD
:1030B0004DCF81E0E4CF282F35EB2303C00111244D
:1030C00097FF04C080589109892F089580589F4F19
:1030D000FBCF8091D50280FF0DC06091380170E078
:1030E000660F771F60387105C0F561157105B9F17C
:1030F000862F089581FF07C06091380184E0689FA2
:10310000B0011124EFCF82FF04C06091380188E044
:10311000F6CF8091D4028823E9F090913701609135
:10312000380170E0891730F093E0660F771F9A95A9
:10313000E1F7D8CF869F9001879F300D112483E05F
:10314000220F331F8A95E1F7692F70E0C9010E94B1
:10315000C02AC8CF68E070E0CBCF8FE7089581E048
:1031600008958091D50280FF0CC06091340170E019
:1031700075956795759567956115710561F1862F50
:10318000089581FF06C06091340170E075956795E0
:10319000F3CF6091340170E082FD15C02091D3021D
:1031A0002223B1F0909133016091340170E029172E
:1031B00050F4269FA001279F500D1124692F70E025
:1031C000CA010E94C02A60387105B0F28FE70895E5
:1031D00061E070E0D4CF81E008959091D802209111
:1031E000D902922B2091DB02922B2091DA02922BB2
:1031F000992331F098E09093D40291E09093D30218
:103200008D3C31F40E94691881958093D90208950C
:10321000E2E3E80FE231B0F5F0E0E055F44D0C9454
:10322000D42A0E946918F1CF0E9469188195809371
:10323000D80208950E946918FACF0E94B1188093AD
:10324000DA0208950E94B1188195F9CF0E94B11851
:1032500081958093DB0208950E94B118FACF815DB9
:10326000990B21E030E001C0220F8A95EAF78091A6
:10327000D702822B8093D70208958091D502816076
:103280008093D50208958091D5028260F9CF809114
:10329000D5028460F5CF4091D8028D3C59F48091DD
:1032A000D90287FF0DC01092D902442359F410921D
:1032B000D40208C08E3C81F48091D90218169CF388
:1032C000442381F08091DA029091DB02892B8111F5
:1032D00059C01092D30208958F3C41F447FFF0CFBC
:1032E0001092D8028091D9028823E0CF803D19F452
:1032F0001416B4F3E5CF9091DA02893D29F419163A
:10330000FCF61092DA02DCCF8A3D19F497FFD8CF91
:10331000F8CF9091DB028B3D29F497FFD1CF10922B
:10332000DB02CECF8C3D19F41916CCF3C9CF9FE246
:10333000980F983090F4815D990B21E030E0B9014D
:1033400002C0660F771F8A95E2F7CB0180959091B6
:10335000D70289238093D702B3CF8D3D31F480917A
:10336000D5028E7F8093D502ABCF8E3D21F4809124
:10337000D5028D7FF7CF8F3D09F0A2CF8091D50286
:103380008B7FF0CF08950E94C3202091D802309106
:10339000D902232B222321F08093D1029093D202D1
:1033A0002091DA023091DB02232B222321F080933B
:1033B000CF029093D00286ED92E00E94A31E089562
:1033C00086E0E6EDF2E0DF011D928A95E9F71092C2
:1033D000D4021092D3021092D5020895FC0182818A
:1033E00081110DC0838181110AC08481811107C0C0
:1033F00081E09581911101C080E08170089581E0A4
:10340000FCCFA6E0B0E0E7E0FAE10C94EE2A86E01B
:10341000E6EDF2E09E012F5F3F4FD90101900D9242
:103420008A95E1F71092D8021092D9021092DA022E
:103430001092DB028B819C81892B8901882391F07A
:103440008091D1029091D2020E94EC209C01809147
:10345000D4028823C9F14091390150E04217530743
:1034600008F43FC08D819E81892B882399F080913B
:10347000CF029091D0020E94EC209C018091D30257
:10348000882309F467C04091350150E04217530783
:1034900008F46EC0B80186ED92E00E94F51F81111C
:1034A00005C086ED92E00E94EE1981110E94C319B9
:1034B00086E0F801A6EDB2E001900D928A95E1F761
:1034C0002696E5E00C940A2B40913A019AE0499F38
:1034D000A00111244217530728F68F5F8093D4026E
:1034E00002C08F3FD1F7FB80FF2059F00E9469187E
:1034F00091E01F140CF09FEF899F802D1124809381
:10350000D802FC80FF2059F00E94691891E01F1436
:103510000CF09FEF899F802D11248093D902809118
:10352000D802882309F49ECFF090D902FF2009F435
:1035300099CF0E945B18811101C081E08093D8026D
:103540008F2D0E945B18882319F08093D9028ACFAF
:1035500081E0FBCF409136019AE0499FA001112400
:103560004217530708F096CF8F5F8093D30202C0B3
:103570008F3FD1F7FD80FF2059F00E94B11891E0F4
:103580001F140CF09FEF899F802D11248093DA0285
:10359000FE80FF2059F00E94B11891E01F140CF03A
:1035A0009FEF899F802D11248093DB028091DA02A6
:1035B000882309F46FCFF090DB02FF2009F46ACF73
:1035C0000E945B18811101C081E08093DA028F2D87
:1035D0000E945B18882319F08093DB025BCF81E0A7
:1035E000FBCFFF920F931F93CF93DF93E82FF0E071
:1035F000E45DFC4FF490282F26952695269530E023
:10360000F901E453FC4F94918770F901E454FC4FA5
:10361000049110E0082E02C0159507950A94E2F770
:1036200001701127F901E455FC4FC491D0E0082E38
:1036300002C0D595C7950A94E2F7C170DD27E92F3E
:10364000F0E002C0F595E7958A95E2F7E0FD10C03D
:1036500001151105C1F48F2D0E941805CD2B19F00D
:103660008CE20E941805CDB7DEB7E5E00C940A2B7A
:1036700081EE0E9485040115110579F48F2D0E94B9
:10368000180581EE07C086EE0E9485048F2D0E94EA
:10369000180586EE0E94CD04E1CF86EE0E948504D7
:1036A0008F2D0E94180586EE0E94CD04EACFEF927E
:1036B000FF921F93CF93DF93EC01162F888188230D
:1036C00009F456C0813009F050C089818130A1F4DD
:1036D0007E0122E0E20EF11C8A810E941805E701BA
:1036E0002196812F882351F3EFE9FFE03197F1F71D
:1036F00000C000008150F6CF823041F47E0182E0AC
:10370000E80EF11C8A810E948504E9CF833041F4E0
:103710007E01E2E0EE0EF11C8A810E94CD04DFCF33
:10372000843011F02196DCCF2A81229680E090E04F
:103730006AE0AE014F5F5F4F2053330B2A303105F3
:1037400048F0019768F2EFE9FFE03197F1F700C028
:103750000000F7CF689FF001699FF00D1124C901A7
:103760008E0F9F1F2981EA01E4CF0E94F11AB8CF82
:10377000DF91CF911F91FF90EF9008950F931F93CA
:10378000CF93DF93C42FD22FFC0185818823C9F00A
:103790004093DE020E94C3209093DD028093DC02FE
:1037A00080E28C0F883040F4C77081E001C0880F40
:1037B000CA95EAF70E942105DF91CF911F910F91E1
:1037C00008951091DE0214133CC08091DC029091A8
:1037D000DD020E94EC20883C910598F5C0E2CD0FF7
:1037E0001D1741F180E2810F883040F4177081E0AD
:1037F00001C0880F1A95EAF70E942805C83020F00A
:10380000802F0E941805D8CF91E08D2F877001C0BE
:10381000990F8A95EAF7892F0E942105802F0E942F
:103820001805D77081E001C0880FDA95EAF70E9489
:103830002805C2CF802F0E941805C83008F0BCCFE1
:10384000F0CF80E28C0F883008F0B6CFC77081E0EF
:1038500001C0880FCA95EAF7EACF0F93FC01CB01AC
:10386000E851FC47E730F10590F5EE53F44D0C9428
:10387000D42A06E221EE41EE6AE17CE70E94BE1BFB
:1038800080E00F91089507E225EE45EE6BE17CE7BD
:10389000F5CF06E221EE40EE68E17CE7EFCF07E2EC
:1038A00025EE44EE69E17CE7E9CF06E221EE42EE47
:1038B0006CE17CE7E3CF07E225EE46EE6DE17CE7C5
:1038C000DDCF08E221E045EE6EE17CE7D7CFFB01DA
:1038D000858181111092DE0281E0D3CFCF93DF93F7
:1038E0009C01FB0127378CE7380739F028373C4724
:1038F000F1F081E0DF91CF9108958581882391F0E7
:103900000E94A01C0E94F1070E94A61CD82F0E94B2
:10391000A31CC82F0E94A01C4D2F6C2F0E942209AF
:1039200080E0E8CF0E94A01C0E94FD07EDCF8581BA
:10393000882319F00E94A31CE5CF0E94A31CF4CF9A
:1039400080913D01089580913C01089580913B0153
:10395000089585E290E00E942E2B843289F486E25D
:1039600090E00E942E2B823059F487E290E00E9472
:103970002E2B91E0853009F090E0892F8170089519
:1039800080E0FCCF882381F064E285E290E00E9431
:103990004C2B62E086E290E00E944C2B65E087E2CF
:1039A00090E00E944C2B08956FEF85E290E00E941A
:1039B0004C2B6FEF86E290E00E944C2B6FEFEFCF25
:1039C0000895A4E0B0E0E7EEFCE10C94F12A88E26F
:1039D00090E00E942E2B282F30E040E050E0CA01FA
:1039E000B9012496E2E00C940D2B0895CF93C62FD5
:1039F0000E94F51C6C2F88E290E00E944C2BCF9126
:103A0000089580E00E94C21C60E070E0CB010E943B
:103A1000F61C0E9411160E94C61681E00E94C21C6C
:103A200008950E94E01C0E94E11C0E94F51C0E9467
:103A3000A91C811102C00E94011D089508959C01D6
:103A4000FB018581882351F0A90157574038510562
:103A500030F4822F0E94D61680E0089581E0089508
:103A60002FEFFC01208308950E94301D089580E00F
:103A70000895CF92DF92FF920F931F93CF93DF931E
:103A8000CDB7DEB72E970FB6F894DEBF0FBECDBF11
:103A90008D839E83F62E8D819E810E94371D81111C
:103AA00015C0AD81BE81EC91E150E33140F5F0E00D
:103AB000E753F44D0C94D42AED81FE8111828CE001
:103AC00082836F2D8D819E810E94CF232E960FB60B
:103AD000F894DEBF0FBECDBFDF91CF911F910F9144
:103AE000FF90DF90CF900895AD81BE8111968C91AB
:103AF000833099F148F4813081F08230E9F08FEF22
:103B0000AD81BE818C93DDCF8430C9F7ED81FE811C
:103B10001282138214821582D4CF0E94CF200E9479
:103B2000DA2A6F83788789879A87ED81FE8162839D
:103B3000738384839583C5CF0E94E11C0E94DA2A97
:103B40006B877C878D879E87AD81BE8112966D9332
:103B50007D938D939C931597B4CFED81FE81028167
:103B600010E06F01F3E0CF0ED11C043111050CF011
:103B7000A8CF802F0E945F11D6018D936D010F5F3A
:103B80001F4FF3CFED81FE818181823049F0853076
:103B900009F0B5CFED81FE8182810E941E1D91CF7B
:103BA000AD81BE8112968D919D910D90BC91A02DFD
:103BB00089839A83AB83BC83BC01CD010E94DA2A3E
:103BC0000E94F61C7ECFAD81BE8113964C91139757
:103BD00012966C91129711968C910E94D31598278A
:103BE00089279827ED81FE81958384836ACFAD81F3
:103BF000BE8114962D913C911597322723273227A9
:103C000013964C91139712966C91129711968C9172
:103C10000E94F51556CF0E94111653CF6F2D8D813E
:103C20009E810E94341D4DCF0E947E16ED81FE8143
:103C3000818347CF0E948016982789279827AD81D6
:103C4000BE8112969C938E9311973BCFED81FE819E
:103C5000638170E081819281AF014C5F5F4F982753
:103C6000892798270E9483162CCFAD81BE81139699
:103C70006C91139770E011968D919C911297AD0104
:103C80004C5F5F4F9827892798270E94A51619CF68
:103C90000E94C61616CF0E94C015C8CFAD81BE8146
:103CA00013966C91139770E011968D919C911297D9
:103CB000AD014C5F5F4F9827892798270E943116E6
:103CC00000CFED81FE81638170E081819281AF013F
:103CD0004C5F5F4F9827892798270E945216F1CE94
:103CE0009093E5028093E40208950E9445138111A8
:103CF00003C08091DF020895E091E402F091E502B3
:103D0000309729F00190F081E02D0995089580E029
:103D10000895E091E402F091E502309721F00280ED
:103D2000F381E02D09950895DC01E091E402F09122
:103D3000E502309739F086E08C930480F581E02D20
:103D4000CD0109950895DC01E091E402F091E502CE
:103D5000309739F082E08C930680F781E02DCD0119
:103D600009950895A3E0B0E0E8EBFEE10C94F12A98
:103D70009C018091E2029091E30282179307A1F0E7
:103D80003093E3022093E202E091E402F091E50235
:103D9000309751F083E089833B832A830084F18547
:103DA000E02DCE01019609952396E2E00C940D2BAF
:103DB000A3E0B0E0EEEDFEE10C94F12A9C018091CD
:103DC000E0029091E10282179307A1F03093E102A3
:103DD0002093E002E091E402F091E502309751F087
:103DE00084E089833B832A830084F185E02DCE0122
:103DF000019609952396E2E00C940D2B2091020187
:103E0000309103012E5F3F4F809148018823A9F034
:103E10008091F90287FF11C02091000130910101CA
:103E20002E5F3F4F9DE180E0F90140812F5F3F4FC2
:103E300041118F5F9150C0F7089595E0F4CF88232A
:103E400021F190914801992311F19091F90297FF86
:103E50001EC0982F969596959695803FB0F4E09168
:103E60000001F0910101E90FF11D228130E087701E
:103E700041E050E0BA0102C0660F771F8A95E2F771
:103E80002623372381E0232B91F480E008952091AD
:103E9000020130910301F9013296285F3F4F919161
:103EA000981721F0E217F307D1F7EFCF81E00895DB
:103EB0009C01FC0132968FEF90E04191461751F042
:103EC0008F3F19F4411101C0892F9F5F9630A9F7E8
:103ED0008F3F09F40895280F311D87FD3A95F901A8
:103EE000628308959C01FC013296285F3F4F8191C7
:103EF000861303C0DF0111971C92E217F307B9F78D
:103F00000895FC01862F869586958695603F60F41E
:103F1000E80FF11D677021E030E001C0220F6A95C3
:103F2000EAF78281822B82830895FC01862F869591
:103F300086958695603F80F4E80FF11D677081E0FB
:103F400090E09C0102C0220F331F6A95E2F7B9018D
:103F500060958281682362830895682F809148016B
:103F6000882359F08091F90287FF07C080910001F2
:103F7000909101010E94811F08958091020190910A
:103F800003010E94581F0895682F809148018823DB
:103F900059F08091F90287FF07C08091000190914C
:103FA00001010E94951F08958091020190910301E3
:103FB0000E94721F089580914801882379F08091B2
:103FC000F90287FF0BC0E0910001F09101013296E8
:103FD0008EE1DF011D928A95E9F70895E0910201D3
:103FE000F0910301329686E0F4CFDC01FB011196DB
:103FF0009C9111978181981322C012968C911297EF
:10400000882319F0928189131AC013968C91139703
:10401000882319F09381891312C015968C911597F6
:10402000882319F0958189130AC014969C919923CD
:1040300021F081E02481291303C080E001C081E0E8
:104040008170089508950E94222008958F5F8093C3
:10405000E6020E942320089583E08093E6020E94F6
:10406000232008950E942620089581E08093E6028F
:104070000E94232008950E943520089508950895F0
:104080000E943F200895089508950E943E200895BB
:10409000CF930E9443200E94B6120E944420C0E0A9
:1040A0008C2F0E945F11811105C0CF5FC431C1F711
:1040B000CF91089581E0FCCF85B7806885BF85B733
:1040C000806885BF08951F921FB61F9211248F9399
:1040D0009F93AF93BF938091E702811113C08091AA
:1040E000250390912603A0912703B09128034196C0
:1040F000A11DB11D8093250390932603A093270350
:10410000B0932803BF91AF919F918F911F901FBED5
:104110001F90189580913D03843031F10E94F9037E
:104120001092E70288E190E020E40FB6F894A89599
:10413000809360000FBE2093600083B7817F84600E
:1041400083BF83B7816083BF7894889583B78E7F60
:1041500083BF0FB6F894A895809160008861809322
:104160006000109260000FBE08950E9477070E94C1
:10417000FE03089582E084BD93E095BD9AEF97BD5C
:1041800080936E0008952FB7F89480912503909145
:104190002603A0912703B09128032FBF0895A4E020
:1041A000B0E0E5EDF0E20C94F12A8FB7F89420919D
:1041B000250330912603409127035091280329833A
:1041C0003A834B835C838FBF69817A818B819C8129
:1041D0002496E2E00C940D2B9C014FB7F89480914B
:1041E000250390912603A0912703B09128034FBF88
:1041F000821B930B0895A4E0B0E0E1E0F1E20C949F
:10420000EF2A462F572FBC012FB7F8948091250332
:1042100090912603A0912703B09128032FBF8C0112
:104220009D01041B150B260B370BC901B801249601
:10423000E4E00C940B2B78941F921FB61F9211246C
:104240008F939F93AF93BF93809125039091260303
:10425000A0912703B09128030196A11DB11D809361
:10426000250390932603A0932703B0932803BF91BF
:10427000AF919F918F911F901FBE1F90189587E758
:1042800097E7909301088093000888E19AE00FB6C1
:10429000F894A895809360000FBE90936000FFCFC4
:1042A00088E19AE00FB6F894A895809360000FBE5D
:1042B00090936000FFCF1092B90088E48093B8001B
:1042C0000895A0E0B0E0E7E6F1E20C94E82AB82E09
:1042D000EB010E94C3206C01EE24E394F12CC43165
:1042E000D10560F025E0E22EF12CCF3FDC0731F064
:1042F000CE0164E170E00E94AC2A7B0184EAA82E22
:1043000094E8992E1092BC00A092BC000E94C32099
:10431000182F092F8091BC0087FF0CC08091B90035
:10432000887F8830F9F08091B900887F8031D1F0A2
:104330000FEF08C0812F902F0E94EC20E816F9069D
:1043400048F70EEF1FEFCF3FDC07E1F2C6010E94F6
:10435000EC20C817D907B0F6C801CDB7DEB7EBE03F
:104360000C94042BB092BB009092BC000E94C3201E
:10437000182F092F8091BC0087FF0AC02091B90037
:10438000287F283111F0203499F600E010E0E4CFC6
:10439000812F902F0E94EC20E816F90658F7D1CF14
:1043A0000F931F93CF93DF93EB018093BB0084E8BF
:1043B0008093BC000E94C320182F092F8091BC005D
:1043C00087FF11C02091B900287F81E090E028325A
:1043D00011F480E090E0919581959109DF91CF9162
:1043E0001F910F910895CF3FDC0741F3812F902F4C
:1043F0000E94EC20C817D90708F78EEF9FEFEECF89
:104400000F931F93CF93DF93EC0184EC8093BC0058
:104410000E94C320182F092F8091BC0087FF08C07D
:104420008091BB0090E0DF91CF911F910F91089593
:10443000CF3FDC0789F3812F902F0E94EC20C81713
:10444000D90750F78EEF9FEFEECF0F931F93CF93C7
:10445000DF93EC0184E88093BC000E94C320182FF6
:10446000092F8091BC0087FF08C08091BB0090E0BD
:10447000DF91CF911F910F910895CF3FDC0789F312
:10448000812F902F0E94EC20C817D90750F78EEF8C
:104490009FEFEECFA0E0B0E0E0E5F2E20C94EB2A73
:1044A000C62F6A017901B8010E9461219C0197FD24
:1044B0000DC0B8018C2F0E94D0219C01E601EC0CAC
:1044C000FD1CCE15DF0511F037FF09C084E980938C
:1044D000BC00C901CDB7DEB7E8E00C94072BB801EA
:1044E00089910E94D0219C01ECCFA0E0B0E0EBE7E5
:1044F000F2E20C94E72AD82EC62E7A01E901B8011F
:104500000E9461219C0197FD13C0B8018C2D0E946F
:10451000D0219C0197FD0CC0B8018D2D81600E94B7
:1045200061219C0121976E01209781F437FF26C0FD
:1045300084E98093BC00C9011816190614F480E0C0
:1045400090E0CDB7DEB7ECE00C94032B97FDF0CFF5
:10455000A12CB12C4601C8010E9400229C0197FDAC
:10456000E7CFF701EA0DFB1D80838FEFA81AB80A89
:10457000C82DD92DAC14BD0470F3D8CFC8010E944A
:1045800025229C0197FDD4CFCE0DDF1D8883D0CF8F
:104590008093BA0085EC8093BC0008951F920F921F
:1045A0000FB60F9211242F933F934F935F936F9306
:1045B0007F938F939F93AF93BF93CF93DF93EF93AB
:1045C000FF938091B900982F987F9038F1F038F4DC
:1045D000992309F48EC0903699F021E037C0887E87
:1045E000883AD9F7E091E902F0E0E75DFC4F80817D
:1045F0008093BB008091E9028F5F8093E902EDCF49
:104600001092E8021092EA02E8CF8091E80281114C
:104610003AC08091BB008093E9028091E90221E0D9
:10462000803118F01092E90220E081E08093E802E6
:104630008091E90290E031E0409114015091150120
:104640004817590709F030E03093EA028091BC0026
:1046500090E4299F90011124822B85688093BC00EF
:10466000FF91EF91DF91CF91BF91AF919F918F918A
:104670007F916F915F914F913F912F910F900FBE5E
:104680000F901F901895E091E902F0E08091BB0037
:10469000E75DFC4F80838091E9028F5F8093E902A0
:1046A0008091EA02882309F498CFC091C001D0918B
:1046B000C101A88188E0A802D0011124AD5EBE4FDF
:1046C0001696ED91FC911797309709F486CF1496C2
:1046D0002D913C9115972C0F3D1F11966D917C915A
:1046E00012976C0F7D1F13964C9113978C9109951F
:1046F00074CF1092BC0071CF8091F3020895282FDF
:10470000CB01BA0130913D033430E1F42F70209396
:10471000E9002FEF3091E80035FD07C035ED3A95FF
:10472000F1F7000021502111F5CF2091E80025FF7D
:1047300009C040E050E00E94C9258091E8008E77D2
:104740008093E8000895BC0143E050E084E00E94BB
:104750007F230895BC0146E050E084E00E947F235F
:104760000895BC0140E250E084E00E947F23089558
:10477000CF93DF93D82FC92F48E050E0682F792FCF
:1047800081E00E947F2388E0ED2FFC2FABEEB2E0AA
:1047900001900D928A95E1F7DF91CF910895792FDD
:1047A000603231F440E250E0682F82E00E947F23C3
:1047B000089580913C03811109C00E94A0270E94A6
:1047C000FD278091E20084608093E20008951092BA
:1047D0003C0308950E94352008956091390381E0DB
:1047E000611101C080E00E942C20089590913D034A
:1047F00081E0943009F080E0609139030E9432201A
:10480000089542E061EC81E00E941C2742E261ECE5
:1048100084E00E941C2742E261EC82E00E941C2797
:1048200042E260EC83E00E941C2790913D0381E00E
:10483000943009F080E0609139030E9426200895A9
:1048400080913F03893089F148F4823009F4A1C096
:10485000833009F45BC0813041F008958A3009F457
:1048600088C08B3009F46DC0089580913E03813A71
:1048700009F04BC08091E800877F8093E800809129
:10488000420390914303892B61F060E080E090E067
:1048900070E00E9467268091E8008B778093E800A3
:1048A000089568E08BEE92E0F3CF80913E03813271
:1048B00061F580914203909143038D7F892B29F507
:1048C0008091E800877F8093E8008091E80082FF74
:1048D00018C09091F3008091F200029731F480911A
:1048E000F100813011F0863021F48091F100809345
:1048F000F3028091E8008B778093E8000E945027B4
:1049000004C080913D038111E0CF089580913E0362
:10491000813AD9F78091420390914303892BA9F7FB
:104920008091E800877F8093E8008091E80080FF15
:10493000FCCF809148018093F1008091E8008E7750
:10494000DBCF80913E03813201F780914203909149
:104950004303892BD1F68091E800877F8093E8009C
:104960000E94502780914003809348010E9477075E
:10497000089580913E03813241F68091E800877F5F
:104980008093E8000E945027809141038093F402B5
:10499000089580913E03813A09F0B7CF8091E800F5
:1049A000877F8093E8008091E80080FFFCCF8091B2
:1049B000F402C1CF84B7877F84BF0FB6F894A8955F
:1049C00080916000886180936000109260000FBE4B
:1049D00080E890E00FB6F8948093610090936100B6
:1049E0000FBE0E943B2008950E94A0270E94FD2731
:1049F000E2EEF0E080818460808378940E94802AD7
:104A000008958EE391E00E94701E089580913D0309
:104A1000853031F480913D03853019F00E94B52036
:104A200008950E948A2080913B03882399F30E9475
:104A30004820882379F30E94B3250E947707EACFA4
:104A4000A0E2B0E0E6E2F5E20C94F12A80913D03A9
:104A5000843081F483E08093E9008091E80082FF54
:104A600009C08091E80085FD09C08091E8008B773E
:104A70008093E800A096E2E00C940D2B40E050E01B
:104A800060E270E0CE0101960E9418268091E80055
:104A90008B778093E80060E2CE0101960E94391D79
:104AA000E9CF9A0140914403509145030E94592552
:104AB0000895AC01CB01D901252F332723303105CF
:104AC00021F168F42130310509F443C02230310569
:104AD00009F444C080E090E020E030E024C02132BE
:104AE000310551F122323105A9F78330910590F754
:104AF000FC01EE0FFF1FEB53FE4F208131818E53DF
:104B00009E4FFC01808190E00EC0CA019927413080
:104B100069F08230910569F0E6E1F4E0892BD1F685
:104B2000849190E09F012D933C930895E4E0F4E09C
:104B3000F7CFECEDF3E0F4CF8330910558F6FC01AC
:104B4000EE0FFF1FE553FE4F2081318189E090E099
:104B5000EACF82E190E025E734E0E5CF8BE590E015
:104B60002AE134E0E0CF80E189BD82E189BD09B46A
:104B700000FEFDCF8091D8008F7D8093D80080917A
:104B8000E00082608093E0008091E00081FDFCCF36
:104B90000895AF92BF92CF92DF92FF920F931F932F
:104BA000CF93DF936C01EB018A010E946F27F82EEF
:104BB000811123C00115110539F0F801808191811F
:104BC000C81BD90BC80ED91EA12CB12C2097A9F057
:104BD0008091E80085FD22C08091E8008E77809367
:104BE000E80001151105A1F0F801808191818A0D7D
:104BF0009B1D9183808385E0F82E8F2DDF91CF91CF
:104C00001F910F91FF90DF90CF90BF90AF900895CC
:104C10000E946F278823E1F2F82EEFCFF6018191F1
:104C20006F018093F1002197FFEFAF1ABF0ACECF3B
:104C3000AF92BF92CF92DF92FF920F931F93CF93C9
:104C4000DF936C01EB018A010E946F27F82E81111E
:104C500023C00115110539F0F80180819181C81B2D
:104C6000D90BC80ED91EA12CB12C2097A9F0809188
:104C7000E80085FD22C08091E8008B778093E800F2
:104C800001151105A1F0F801808191818A0D9B1D0C
:104C90009183808385E0F82E8F2DDF91CF911F9136
:104CA0000F91FF90DF90CF90BF90AF9008950E943A
:104CB0006F278823E1F2F82EEFCF8091F100F60103
:104CC00081936F012197FFEFAF1ABF0ACECFFC018E
:104CD0009B0180914403909145038617970718F034
:104CE000672B61F0C90140E0009771F441110CC0DD
:104CF0008091E80082FF35C080E008958091E8004F
:104D00008E778093E800EECF20913D032223A9F116
:104D10002530A9F12091E80023FD2DC02091E80065
:104D200022FDE6CF2091E80020FFDECF3091F30096
:104D30002091F200009719F02830310558F041E039
:104D40002830310509F040E02091E8002E772093CB
:104D5000E800CACF41914093F10001972F5F3F4F88
:104D6000E9CF80913D03882341F0853041F0809167
:104D7000E80083FFBDCF81E0089582E0089583E0DD
:104D80000895FC019B01809144039091450386178F
:104D9000970718F0672B61F0C90140E0009771F4A4
:104DA00041110CC08091E80082FF36C080E0089578
:104DB0008091E8008E778093E800EECF20913D034C
:104DC0002223B1F12530B1F12091E80023FD2EC05E
:104DD0002091E80022FDE6CF2091E80020FFDECF01
:104DE0003091F3002091F200009719F0283031053E
:104DF00058F041E02830310509F040E02091E8000A
:104E00002E772093E800CACF44914093F100319669
:104E100001972F5F3F4FE8CF80913D03882341F0FA
:104E2000853041F08091E80083FFBCCF81E0089598
:104E300082E0089583E00895982F973028F08F70CE
:104E40008093E90081E008959093E900242F762F64
:104E500050E0981731F07091EC002091ED005091E6
:104E6000F00021FD02C09F5FE8CF3091EB003E7F54
:104E70003093EB003091ED003D7F3093ED003091A9
:104E8000EB0031603093EB007093EC002093ED0069
:104E90005093F0002091EE0027FDE5CF80E00895CB
:104EA00080913E0387FF13C08091E80082FF06C017
:104EB0008091E8008B778093E80004C080913D03E7
:104EC0008111F2CF089580913D038823D9F3809119
:104ED000E80080FFF8CF8091E8008E77ECCF20913A
:104EE000E4003091E50095E6A9018091EC00817025
:104EF000882331F08091E80080FF06C080E00895AB
:104F00002091E80022FD1BC080913D03882391F091
:104F1000853091F08091EB0085FD10C02091E40078
:104F20003091E5004217530701F391509111DCCF06
:104F300084E0089582E0089583E0089581E0089573
:104F40000E940F280E941728E0EEF0E08081816027
:104F50008083E8EDF0E080818F77808319BCA7ED36
:104F6000B0E08C918E7F8C9380818F7E80831092B5
:104F70003C0308950F931F93CF93DF930E940F2854
:104F80000E941728C8EDD0E088818F7788838881B8
:104F90008068888388818F7D888319BC10923D0347
:104FA0001092390310923B0310923A0300EE10E086
:104FB000F80180818B7F808388818160888342E0D3
:104FC00060E080E00E941C27E1EEF0E080818E7FAF
:104FD0008083E2EEF0E08081816080838081886060
:104FE0008083F80180818E7F8083888180618883BF
:104FF000DF91CF911F910F910895E8EDF0E080814E
:105000008F7E8083E7EDF0E080818160808384E0A3
:1050100082BF81E080933C030E94BA270895E8EDA7
:10502000F0E080818E7F80831092E20008951092DC
:10503000DA001092E10008951F920F920FB60F92BE
:1050400011242F933F934F935F936F937F938F938D
:105050009F93AF93BF93EF93FF938091E10082FF03
:105060000BC08091E20082FF07C08091E1008B7F3E
:105070008093E1000E947F2A8091DA0080FF19C0AE
:105080008091D80080FF15C08091DA008E7F8093D8
:10509000DA008091D90080FF94C080E189BD82E16F
:1050A00089BD09B400FEFDCF81E080933D030E94DD
:1050B000D9238091E10080FF19C08091E20080FF38
:1050C00015C08091E2008E7F8093E2008091E20023
:1050D00080618093E2008091D80080628093D80044
:1050E00019BC85E080933D030E94ED238091E1008F
:1050F00084FF29C08091E20084FF25C080E189BD42
:1051000082E189BD09B400FEFDCF8091D8008F7D7A
:105110008093D8008091E1008F7E8093E1008091A0
:10512000E2008F7E8093E2008091E20081608093B4
:10513000E20080913903882309F449C084E0809318
:105140003D030E94F6238091E10083FF29C08091F6
:10515000E20083FF25C08091E100877F8093E1001A
:1051600082E080933D03109239038091E1008E7FAD
:105170008093E1008091E2008E7F8093E200809135
:10518000E20080618093E20042E060E080E00E9403
:105190001C278091F00088608093F0000E94EA2331
:1051A000FF91EF91BF91AF919F918F917F916F91FF
:1051B0005F914F913F912F910F900FBE0F901F90D5
:1051C000189519BC10923D030E94E72372CF80917D
:1051D000E30087FF02C083E0B2CF81E0B0CF1F922F
:1051E0000F920FB60F921124FF920F931F932F93DC
:1051F0003F934F935F936F937F938F939F93AF935F
:10520000BF93CF93DF93EF93FF9309EE10E0F80184
:105210008081C091EC00C795CC27C7958F70FC2E7C
:10522000F82A1082C0EFD0E08881877F8883789445
:105230000E943829F8011082888188608883CF2DE8
:10524000CF70C083FF91EF91DF91CF91BF91AF916C
:105250009F918F917F916F915F914F913F912F918E
:105260001F910F91FF900F900FBE0F901F901895F8
:10527000AAE2B0E0EEE3F9E20C94F02A8EE393E0C8
:10528000FC0101962091F100208323E086349207EF
:10529000B9F70E9420248091E80083FF38C08091F4
:1052A0003E0390913F039A3090F5E92FF0E0E452ED
:1052B000F44D0C94D42A803889F0823841F58091DD
:1052C00042038F70873018F58093E9008091EB00DE
:1052D00085FB882780F91092E90006C080913A0387
:1052E00090913B03911182609091E800977F909399
:1052F000E8008093F1001092F1008091E8008E7731
:1053000023C0811116C080914003813011F180913A
:10531000E80083FF0AC08091E800877F8093E8005F
:105320008091EB0080628093EB00AA96E3E00C94FE
:105330000C2B823061F780914003882389F0109212
:10534000E9008091E800877F8093E8000E94502761
:10535000DECF81E0933009F080E080933B03EFCF14
:10536000809142038F702FEF280F263080F68093B4
:10537000E9002091EB0020FFE2CF933031F48091DF
:10538000EB0080628093EB00DACF9091EB009061AC
:105390009093EB0021E030E0A90102C0440F551FBB
:1053A0008A95E2F74093EA001092EA008091EB00C0
:1053B0008860E8CF8111ABCF109140031F778091B7
:1053C000E3008078812B8093E3008091E800877F61
:1053D0008093E8000E9450278091E80080FFFCCF76
:1053E0008091E30080688093E30083E0111101C0A5
:1053F00082E080933D038BCF8058823008F087CFC6
:1054000080914003909141038C3D53E0950799F5BD
:1054100083E08A838AE289834FB7F894DE0113968A
:1054200020E03EE051E2E32FF0E0509357008491FA
:1054300020FF03C082958F703F5F8F708A30C8F065
:10544000895C90E08D939D932F5F243161F74FBF6E
:105450008091E800877F8093E8006AE270E0CE01E7
:1054600001960E9467268091E8008B778093E80080
:105470004ECF805DE6CF6091420370914303AE0151
:105480004F5F5F4F0E945125BC01892B09F43FCF2C
:105490008091E800877F8093E80089819A810E944B
:1054A000C126E1CF803809F032CF8091E800877FB4
:1054B0008093E800809139038093F1001ECF811121
:1054C00026CF90914003923008F021CF8091E800E0
:1054D000877F8093E800909339030E945027809142
:1054E0003903882331F084E080933D030E94012436
:1054F0000ECF8091E30087FDF6CF81E0F5CF0895D0
:10550000CF9380913D03882399F08091E900C09169
:10551000EC00C795CC27C7958F70C82B1092E90077
:105520008091E80083FD0E943829CF70C093E90084
:10553000CF9108950E94A02710923D030895E8EDB1
:10554000F0E08081806180838AE18A95F1F700C074
:105550008091D90081700895AA1BBB1B51E107C03F
:10556000AA1FBB1FA617B70710F0A61BB70B881FF3
:10557000991F5A95A9F780959095BC01CD01089582
:1055800097FB072E16F4009407D077FD09D00E94F0
:10559000AC2A07FC05D03EF4909581959F4F089565
:1055A000709561957F4F0895EE0FFF1F0590F49160
:1055B000E02D099469279627692778278727782778
:1055C00008952F923F924F925F926F927F928F92A7
:1055D0009F92AF92BF92CF92DF92EF92FF920F9382
:1055E0001F93CF93DF93CDB7DEB7CA1BDB0B0FB68C
:1055F000F894DEBF0FBECDBF09942A883988488849
:105600005F846E847D848C849B84AA84B984C884DE
:10561000DF80EE80FD800C811B81AA81B981CE0FD5
:10562000D11D0FB6F894DEBF0FBECDBFED010895BA
:10563000FB01DC0104C08D910190801921F44150DF
:105640005040C8F7881B990B0895FB01DC0102C08C
:1056500001900D9241505040D8F70895F999FECF2E
:1056600092BD81BDF89A992780B50895A8E1B0E070
:1056700042E050E00C94722BDC01A40FB51F4150A6
:10568000504048F0CB01840F951F2E910E944D2B66
:1056900041505040D0F70895262FF999FECF92BD82
:1056A00081BDF89A019700B4021639F01FBA20BDE7
:1056B0000FB6F894FA9AF99A0FBE08950396272F19
:1056C0000E944D2B0E944C2B252F0E944D2B242FE6
:1056D0000C944D2B0196272F0E944D2B0C944C2B94
:1056E000DC01CB01FC01F999FECF06C0F2BDE1BDA2
:1056F000F89A319600B40D9241505040B8F7089591
:10570000F894FFCF6D056D05B405B405190636068E
:105710009C059C053B06A806B906B906D7174B1889
:10572000DF17A917AD17E317B117E717F317BD1761
:105730004418C117F717C517FB172318C917FF1708
:105740002A18CF1705180D18B517EB17B917EF174B
:10575000D3170918191833184218A317DB17521852
:10576000111914191A192F192F192F192F192F1947
:105770002F192F192F191D19221926192C193D1906
:1057800043194719491C4F1C391C431C551C5B1CF1
:10579000611C5C1D741DC21DE31DF71D0B1E0E1E3A
:1057A0000E1E0E1E7F1D7F1D141E1A1E261E351E68
:1057B000481E4B1E4E1E611E5B29812987298129A7
:0C57C0008729DA29FC298729522A5F2A50
:1057CC0066028602F6F73332F594669736C63431A4
:1057DC0035F4010100000000000000000000010190
:1057EC000000000000000A02000000040C00000091
:1057FC00000000280850011E0A14010302017C233A
:10580C00B823B123AA23A32301E200E900EA00B5DF
:10581C0000B600B700CD008301CC008A0192019440
:10582C00012102230224022502260227022A02B3A6
:10583C0000B4006F0070009F01CB019F02A002E238
:10584C0000E900EA00B500B600B700CD008301CC3A
:10585C00008A0192019401210223022402250226CE
:10586C000227022A02B300B4006F0070009F01CB24
:10587C00019F02A002323435333136F7F6F5F400CD
:10588C0029034422B65F058704A9042C044504654A
:02589C00040006
:00000001FF
